:100000000C9458000C9480000C9480000C94800098
:100010000C9480000C9480000C9480000C94800060
:100020000C9480000C9480000C9480000C94800050
:100030000C9480000C9480000C9480000C94800040
:100040000C9414030C9480000C94E2020C94BC02F7
:100050000C9480000C9480000C9480000C94800020
:100060000C945E030C948000000000002500280022
:100070002B00040404040404040402020202020229
:10008000030303030303010204081020408001025C
:1000900004081020010204081020000000080002DB
:1000A00001000003040700000000000000008C04B1
:1000B00011241FBECFEFD8E0DEBFCDBF11E0A0E01E
:1000C000B1E0E4E7FCE002C005900D92A632B10772
:1000D000D9F722E0A6E2B1E001C01D92A037B20735
:1000E000E1F710E0C8E5D0E004C02197FE010E94CE
:1000F0002D06C735D107C9F70E94C5040C943806F0
:100100000C94000090E0FC01E656FF4F2491FC01A6
:10011000EA57FF4F3491FC01EE58FF4FE491EE2374
:10012000B1F1222339F1233091F038F42130A9F0D4
:10013000223001F584B58F7D12C0273091F0283030
:10014000A1F02430B9F4809180008F7D03C08091AC
:1001500080008F77809380000DC084B58F7784BD39
:1001600009C08091B0008F7703C08091B0008F7D6F
:100170008093B000F0E0EE0FFF1FE859FF4FA5910C
:10018000B4918FB7F894EC913E2B3C938FBF0895B8
:10019000CF92DF92EF92FF920F931F93CF93DF9353
:1001A0006C017A018B01C0E0D0E0CE15DF0589F04B
:1001B000D8016D918D01D601ED91FC910190F081F6
:1001C000E02DC6010995892B11F47E0102C021960C
:1001D000ECCFC701DF91CF911F910F91FF90EF906E
:1001E000DF90CF9008958091C00190E02091BF01F1
:1001F000821B91090895FC01918D828D981761F001
:10020000828DDF01A80FB11D5D968C91928D9F5F4D
:100210009F73928F90E008958FEF9FEF0895FC01F8
:10022000918D828D981731F0828DE80FF11D858DAB
:1002300090E008958FEF9FEF0895FC01918D228D3E
:10024000892F90E0805C9F4F821B91098F739927C3
:10025000089587EC91E00E941D0121E0892B09F4AB
:1002600020E0822F0895FC01848DDF01A80FB11DCD
:10027000A35ABF4F2C91848D90E001968F739927DC
:10028000848FA689B7892C93A089B1898C918064C9
:100290008C93938D848D981306C00288F389E02D8A
:1002A00080818F7D80830895EF92FF920F931F933B
:1002B000CF93DF93EC0181E0888F9B8D8C8D981319
:1002C00005C0E889F989808185FD24C0F62E0B8D53
:1002D00010E00F5F1F4F0F731127E02E8C8DE81277
:1002E0000CC00FB607FCFACFE889F989808185FF39
:1002F000F5CFCE010E943301F1CF8B8DFE01E80FC7
:10030000F11DE35AFF4FF0820B8FEA89FB89808150
:10031000806207C0EE89FF896083E889F98980815E
:100320008064808381E090E0DF91CF911F910F91F5
:10033000FF90EF900895CF93DF93EC01888D882391
:10034000C9F0EA89FB89808185FD05C0A889B98942
:100350008C9186FD0FC00FB607FCF5CF808185FF1D
:10036000F2CFA889B9898C9185FFEDCFCE010E948B
:100370003301E7CFDF91CF91089580E090E0892BA2
:1003800029F00E94290181110C94000008953FB7C3
:10039000F8948091720190917301A0917401B091D1
:1003A000750126B5A89B05C02F3F19F00196A11D28
:1003B000B11D3FBFBA2FA92F982F8827820F911DFB
:1003C000A11DB11DBC01CD0142E0660F771F881F42
:1003D000991F4A95D1F7089585ED8093BC008091CF
:1003E000BC0084FDFCCF10929E010895409148010D
:1003F000262F30E0240F311D21323105DCF420910D
:100400009E012430C9F4FC0180E090E0861758F486
:10041000309148012191DC01AA5DBE4FA30FB11DAF
:100420002C930196F3CF80914801680F60934801A7
:1004300080E0089581E0089582E008950895E091B4
:10044000BF018091C001E81730F4F0E0E156FE4FA3
:10045000808190E008958FEF9FEF08959091BF0104
:100460008091C001981750F4E92FF0E0E156FE4F5B
:10047000208130E09F5F9093BF0102C02FEF3FEFDC
:10048000C9010895CF93DF9300D0CDB7DEB7CB017C
:10049000642F49835A830E94F6014981842F5A812F
:1004A000952F0F900F90DF91CF910895CF93DF9309
:1004B0001F92CDB7DEB7698361E0CE0101960E943D
:1004C000F60181E090E00F90DF91CF9108950097C1
:1004D00069F0FC0101900020E9F73197AF01481B5A
:1004E000590BBC0187EC91E00C94C80080E090E0CF
:1004F00008958F929F92AF92BF920F931F93CF93C5
:10050000DF93CDB7DEB7A1970FB6F894DEBF0FBE6D
:10051000CDBF19A2423008F44AE08E010F5D1F4F93
:10052000842E912CA12CB12CA50194010E940B06C4
:10053000E62FB901CA0101501109EA3014F4E05D57
:1005400001C0E95CD801EC93232B242B252B61F708
:10055000C8010E946702A1960FB6F894DEBF0FBED5
:10056000CDBFDF91CF911F910F91BF90AF909F9022
:100570008F9008950E9433061F920F920FB60F922C
:1005800011242F933F934F935F936F937F938F9398
:100590009F93AF93BF93EF93FF9387EC91E00E94FB
:1005A0003301FF91EF91BF91AF919F918F917F9117
:1005B0006F915F914F913F912F910F900FBE0F90D0
:1005C0001F9018951F920F920FB60F9211242F9320
:1005D0008F939F93EF93FF93E091D701F091D80110
:1005E0008081E091DD01F091DE0182FD12C09081F9
:1005F0008091E0018F5F8F732091E101821751F0AC
:10060000E091E001F0E0E953FE4F958F8093E00127
:1006100001C08081FF91EF919F918F912F910F9059
:100620000FBE0F901F9018951F920F920FB60F924A
:1006300011242F933F938F939F93AF93BF938091F8
:100640006E0190916F01A0917001B0917101309194
:100650006D0123E0230F2D3720F40196A11DB11D5C
:1006600005C026E8230F0296A11DB11D20936D0140
:1006700080936E0190936F01A0937001B09371010C
:100680008091720190917301A0917401B0917501F4
:100690000196A11DB11D8093720190937301A093E7
:1006A0007401B0937501BF91AF919F918F913F916C
:1006B0002F910F900FBE0F901F9018951F920F92C1
:1006C0000FB60F9211242F933F934F935F936F9325
:1006D0007F938F939F93AF93BF93EF93FF938091FB
:1006E000B900887F803609F49CC068F5883209F427
:1006F0005BC090F4803109F454C038F4882309F4C5
:10070000F6C0883009F44DC0F6C0883109F44CC0F9
:10071000803209F45DC0EFC0803409F468C048F449
:10072000803309F455C0883309F0E5C080939C01FB
:10073000D8C0803509F44FC0883509F45DC08834CD
:1007400009F0D9C0D6C0883909F4C7C0A8F48837E1
:1007500009F467C038F4883609F463C0803709F4B7
:1007600060C0C9C0883809F4B8C0803909F45FC0D6
:10077000803809F0C0C05BC0803B09F486C038F403
:10078000803A09F466C0883A09F47FC0B4C0803C5E
:1007900009F4A7C0883C09F4A4C0883B09F48AC0C6
:1007A000AAC08091990110C090919B0180919A01FB
:1007B000981770F5E0919B0181E08E0F80939B016B
:1007C000F0E0E858FE4F80818093BB0085EC86C046
:1007D00080939C018EC0E0919B0181E08E0F8093FD
:1007E0009B018091BB00F0E0E858FE4F8083909120
:1007F0009B0180919A016EC0E0919B0181E08E0F78
:1008000080939B018091BB00F0E0E858FE4F80830D
:1008100080919D0181116DC081E08093980184EAEF
:1008200061C083E080939E0110926C01CFCF8091D4
:100830006C01803208F051C0E0916C0181E08E0FB4
:1008400080936C018091BB00F0E0E45BFE4F8083FD
:10085000BDCF85EC8093BC0010929E0180916C010D
:10086000803230F4E0916C01F0E0E45BFE4F1082E6
:1008700060916C0170E0E0914A01F0914B018CE4D1
:1008800091E0099510926C0136C084E080939E013E
:100890001092490110924801E0914601F091470100
:1008A000099580914801811105C081E0809348013C
:1008B00010922601E091490181E08E0F8093490159
:1008C000F0E0EA5DFE4F80818093BB00909149018A
:1008D00080914801981708F479CF85E88093BC008F
:1008E0000AC085EC8093BC0010929E0104C0109257
:1008F0009C010E94EC01FF91EF91BF91AF919F91FC
:100900008F917F916F915F914F913F912F910F90B8
:100910000FBE0F901F901895E7ECF1E01382128242
:1009200088EE93E0A0E0B0E084839583A683B7834C
:1009300024E031E03183208325EC30E035872487C3
:1009400024EC30E03787268720EC30E0318B208B99
:1009500021EC30E0338B228B22EC30E0358B248B82
:1009600026EC30E0378B268B118E128E138E148E70
:10097000E4E6F2E01382128284839583A683B78330
:1009800084E191E0918380830895789484B58260B6
:1009900084BD84B5816084BD85B5826085BD85B523
:1009A000816085BD80916E00816080936E001092A1
:1009B000810080918100826080938100809181001C
:1009C00081608093810080918000816080938000AD
:1009D0008091B10084608093B1008091B00081600B
:1009E0008093B00080917A00846080937A00809137
:1009F0007A00826080937A0080917A00816080938F
:100A00007A0080917A00806880937A001092C10009
:100A10001092BF011092C0011092770110927601DE
:100A200010929E0181E080939D011092980182E1D5
:100A30000E94820083E10E9482008091B9008E7F33
:100A40008093B9008091B9008D7F8093B90088E4CC
:100A50008093B80085E48093BC00E091D701F091C9
:100A6000D80182E08083E091D301F091D40110821B
:100A7000E091D501F091D60180E180831092DF01F1
:100A8000E091DB01F091DC0186E08083E091D90107
:100A9000F091DA01808180618083E091D901F09149
:100AA000DA01808188608083E091D901F091DA01D8
:100AB000808180688083E091D901F091DA018081A2
:100AC0008F7D8083BB24B394AA24AA9494E0992EAA
:100AD00025EE822E35EC332E0FE911E01092C6017F
:100AE00080919E018111FCCFB0929E01B0929D0138
:100AF000A0929C0110929B0190929A01B092990150
:100B00008091990180618093990180919801813051
:100B100069F410929801809199018093BB008091B3
:100B2000BC0083FDF8CF3092BC0002C08092BC00B4
:100B300080919E018130E1F380919B01853018F412
:100B400080919B0101C085E0A8E7B1E0EFE9F1E009
:100B50009E2F901B981718F49D919193F9CF1092A6
:100B6000BF018093C0019091C0018091BF0198178F
:100B700041F1C091C601D0E084E692E00E942E02CD
:100B8000CF53DE4F88836091C10170E080E090E038
:100B90004AE00E94790280E291E00E94670260913F
:100BA000C40170E080E090E04AE00E94790282E2B5
:100BB00091E00E9467028091C6018F5F8093C60119
:100BC000D2CF0E94C7012B013C0184EFC82EDD2447
:100BD000D394E12CF12C0E94C701DC01CB018419D4
:100BE0009509A609B709883E9340A105B10558F0BB
:100BF00021E0C21AD108E108F10888EE480E83E02E
:100C0000581E611C711CC114D104E104F10419F7D0
:100C10000E94BD0163CFA1E21A2EAA1BBB1BFD01DE
:100C20000DC0AA1FBB1FEE1FFF1FA217B307E407CB
:100C3000F50720F0A21BB30BE40BF50B661F771F23
:100C4000881F991F1A9469F7609570958095909503
:100C50009B01AC01BD01CF010895EE0FFF1F059070
:100C6000F491E02D099481E090E0F8940C9438061A
:040C7000F894FFCF26
:100C7400000000005401C8001D01FB000F019B018E
:100C84000000000056024202F3002E021F021E0260
:060C940009000D0A00003A
:00000001FF
