:100000000C9479000C94A1000C94A1000C94290785
:100010000C94FC060C94CF060C94A1000C94A10047
:100020000C94A1000C94A1000C94A1000C94ED037D
:100030000C94A1000C94A1000C94A1000C94A100BC
:100040000C94DA020C94A1000C9473080C944D08E3
:100050000C94A1000C94A1000C94A1000C94A1009C
:100060000C94AE040C94A100084AD73B3BCE016E21
:1000700084BCBFFDC12F3D6C74319ABD56833DDAFF
:100080003D00C77F11BED9E4BB4C3E916BAAAABE0E
:10009000000000803F0000000000240027002A002C
:1000A00000000000250028002B00000000080002CE
:1000B000010000030407000000000000000001022E
:1000C00004081020408001020408102001020408E6
:1000D00010200404040404040404020202020202C4
:1000E000030303030303000000002300260029008C
:1000F000A91111241FBECFEFD8E0DEBFCDBF23E092
:10010000A8E3B1E001C01D92A83BB207E1F711E0FE
:10011000A0E0B1E0E0E1FEE202C005900D92A8335C
:10012000B107D9F710E0C9E7D0E004C02197FE017C
:100130000E942D12C837D107C9F70E94180A0C94E3
:1001400006170C94000085ED8093BC008091BC00E4
:1001500084FDFCCF1092310208954091B701262F03
:1001600030E0240F311D21323105DCF420913102C1
:100170002430C9F4FC0180E090E0861758F43091F7
:10018000B7012191DC01AB56BE4FA30FB11D2C93DB
:100190000196F3CF8091B701680F6093B70180E0BB
:1001A000089581E0089582E008950895E091350270
:1001B00080913402E81730F4F0E0EB58FE4F808174
:1001C00090E008958FEF9FEF089590913502809110
:1001D0003402981750F4E92FF0E0EB58FE4F2081DD
:1001E00030E09F5F9093350202C02FEF3FEFC901CF
:1001F00008958091340290E020913502821B91098C
:100200000895CF92DF92EF92FF920F931F93CF93B7
:10021000DF937C01262F972F8A0180917401882318
:1002200091F0C62FD72F6E01C40ED51ECC15DD055B
:1002300071F06991D701ED91FC910190F081E02D71
:10024000C7010995F3CF642F822F0E94AD00C8012A
:10025000DF91CF911F910F91FF90EF90DF90CF90A2
:100260000895CF93DF931F92CDB7DEB769832091B6
:1002700074012223D1F020913202203240F021E09B
:1002800030E0FC013383228380E090E015C0809150
:100290003302E82FF0E0EC5AFE4F998190838F5F94
:1002A000809333028093320205C061E0CE01019653
:1002B0000E94AD0081E090E00F90DF91CF91089512
:1002C000FF920F931F93CF93DF938C0180913A019C
:1002D000D8011596FC901597F8261296ED91FC9191
:1002E00013979081F92215968C9315971696CD91B8
:1002F000DC911797209731F18B819F2D9823F1F096
:100300009A81913069F0933029F490913A019823C1
:1003100039F414C0923091F490913A01982371F419
:1003200090913A01892391E009F490E0909339018A
:100330008C8180933801E881F98109950D80DE81F7
:10034000C02DD8CF9BB3F801848189238BBB811149
:10035000BDCFDF91CF911F910F91FF9008953FB7CF
:10036000F89480912B0290912C02A0912D02B091D3
:100370002E0226B5A89B05C02F3F19F00196A11D9E
:10038000B11D3FBFBA2FA92F982F8827820F911D2B
:10039000A11DB11DBC01CD0142E0660F771F881F72
:1003A000991F4A95D1F708958F929F92AF92BF926D
:1003B000CF92DF92EF92FF926B017C010E94AF011E
:1003C0004B015C01C114D104E104F104F1F00E947D
:1003D000AF01DC01CB0188199909AA09BB09883E44
:1003E0009340A105B10570F321E0C21AD108E108DC
:1003F000F10888EE880E83E0981EA11CB11CC11480
:10040000D104E104F10419F7DDCFFF90EF90DF9004
:10041000CF90BF90AF909F908F9008958CE00E94F6
:10042000A508019759F40E94AF0160934F017093A2
:100430005001809351019093520108950E94AF01A1
:1004400020914F0130915001621B730B7093370262
:100450006093360280914202876080934202089541
:1004600086E00E94A508019759F40E94AF016093AD
:100470004B0170934C0180934D0190934E01089570
:100480000E94AF0120914B0130914C01621B730B14
:1004900070933902609338028091420285608093A4
:1004A0004202089585E00E94A508019759F40E9430
:1004B000AF01609347017093480180934901909385
:1004C0004A0108950E94AF012091470130914801EF
:1004D000621B730B70933B0260933A02809142025D
:1004E000836080934202089584E00E94A5080197EA
:1004F00059F40E94AF0160934301709344018093CB
:1005000045019093460108950E94AF012091430157
:1005100030914401621B730B70933D0260933C0267
:1005200080914202846080934202089583E00E9499
:10053000A508019759F40E94AF0160933F017093A1
:100540004001809341019093420108950E94AF01C0
:1005500020913F0130914001621B730B70933F0269
:1005600060933E028091420282608093420208952D
:1005700082E00E94A508019759F40E94AF016093A0
:100580003B0170933C0180933D0190933E0108959F
:100590000E94AF0120913B0130913C01621B730B23
:1005A0007093410260934002809142028160809387
:1005B000420208951F920F920FB60F9211242F93AB
:1005C0003F938F939F93AF93BF9380912702909116
:1005D0002802A0912902B0912A023091260223E03C
:1005E000230F2D3720F40196A11DB11D05C026E86B
:1005F000230F0296A11DB11D20932602809327028E
:1006000090932802A0932902B0932A0280912B0292
:1006100090912C02A0912D02B0912E020196A11D65
:10062000B11D80932B0290932C02A0932D02B093C6
:100630002E02BF91AF919F918F913F912F910F907B
:100640000FBE0F901F901895FC0190819C3080F593
:10065000818128E830E0281B310987FD3395220F7E
:10066000331F220F331F621773077CF0828128E546
:1006700032E0281B310987FD3395220F331F220FEB
:10068000331F621773070CF49B0122503109220FAC
:10069000331F4FB7F894892F90E0FC01EE0FFF1F36
:1006A0008E0F9F1FFC01EE5FFD4F328321834FBFF2
:1006B0000895CF93DF93DC018C918C3008F06DC0EE
:1006C0009B013327F901E254FF4F8491F901EE5267
:1006D000FF4F2491222399F030E0220F331FF901BC
:1006E000EA56FF4FC591D491F901E056FF4F25918D
:1006F00034919FB7F894E881E82BE8839FBF8C91F1
:10070000E82FF0E09F01220F331FE20FF31FEE5F8F
:10071000FD4F6F739081907C692B608311961C92C2
:10072000119712961C9212976CE00E9421129CE085
:10073000899FB001112440E050E09A01260F371F35
:10074000F901EE0FFF1F2E0F3F1FF901EE5FFD4F66
:10075000908196FD16C04F5F5F4F4C30510569F791
:1007600081110FC01092800082E08093810010926E
:10077000850010928400B19A80916F00826080930E
:100780006F00EC91F0E0CF01880F991FE80FF91F7F
:10079000EE5FFD4F8081806480838C91DF91CF91EB
:1007A0000895FC01909101029C30A0F481E0890F32
:1007B000809301029083892F90E0FC01EE0FFF1FD0
:1007C0008E0F9F1FFC01EE5FFD4F88EB9BE0928335
:1007D000818308958FEF808308951F920F920FB643
:1007E0000F9211242F933F934F935F936F937F93B7
:1007F0008F939F93AF93BF93EF93FF9380910002EA
:1008000087FF05C010928500109284001BC02091C4
:100810000002022E000C330B8091010290E0281799
:10082000390784F480910002082E000C990BFC011A
:10083000EE0FFF1F8E0F9F1FFC01EE5FFD4F8081AB
:1008400086FD15C0809100028F5F80930002209189
:100850000002022E000C330B8091010290E0281759
:100860003907C4F4809100028C3064F113C0809188
:100870000002082E000C990BFC01EE0FFF1F8E0FDB
:100880009F1FFC01EE5FFD4F808160E08F730E942F
:10089000CE08D8CF80918400909185000496803452
:1008A0009C4918F480E49CE905C0809184009091F3
:1008B0008500049690938900809388008FEF809341
:1008C00000023BC02091840030918500809100029D
:1008D000082E000C990BFC01EE0FFF1F8E0F9F1FBF
:1008E000FC01EE5FFD4F81819281820F931F9093F7
:1008F00089008093880080910002082E000C990BDB
:10090000FC01EE0FFF1F8E0F9F1FFC01EE5FFD4FDE
:10091000808186FF12C080910002082E000C990B86
:10092000FC01EE0FFF1F8E0F9F1FFC01EE5FFD4FBE
:10093000808161E08F730E94CE08FF91EF91BF919B
:10094000AF919F918F917F916F915F914F913F9167
:100950002F910F900FBE0F901F9018951F920F921E
:100960000FB60F9211242F933F934F935F936F9382
:100970007F938F939F93AF93BF93EF93FF93809158
:10098000B900887F803609F49CC068F5883209F484
:100990005BC090F4803109F454C038F4882309F422
:1009A000F6C0883009F44DC0F6C0883109F44CC057
:1009B000803209F45DC0EFC0803409F468C048F4A7
:1009C000803309F455C0883309F0E5C08093DC0119
:1009D000D8C0803509F44FC0883509F45DC088342B
:1009E00009F0D9C0D6C0883909F4C7C0A8F488373F
:1009F00009F467C038F4883609F463C0803709F415
:100A000060C0C9C0883809F4B8C0803909F45FC033
:100A1000803809F0C0C05BC0803B09F486C038F460
:100A2000803A09F466C0883A09F47FC0B4C0803CBB
:100A300009F4A7C0883C09F4A4C0883B09F48AC023
:100A4000AAC08091FF0110C09091FE018091FD012C
:100A5000981770F5E091FE0181E08E0F8093FE0102
:100A6000F0E0E352FE4F80818093BB0085EC86C0AE
:100A70008093DC018EC0E091FE0181E08E0F8093B7
:100A8000FE018091BB00F0E0E352FE4F8083909125
:100A9000FE018091FD016EC0E091FE0181E08E0FAC
:100AA0008093FE018091BB00F0E0E352FE4F808313
:100AB0008091300281116DC081E080932F0284EA21
:100AC00061C083E0809331021092DB01CFCF80912F
:100AD000DB01803208F051C0E091DB0181E08E0F34
:100AE0008093DB018091BB00F0E0E554FE4F8083F2
:100AF000BDCF85EC8093BC00109231028091DB0168
:100B0000803230F4E091DB01F0E0E554FE4F1082DA
:100B10006091DB0170E0E091B901F091BA018BEBDB
:100B200091E009951092DB0136C084E08093310298
:100B30001092B8011092B701E091B501F091B601A1
:100B400009958091B701811105C081E08093B701BB
:100B500010929501E091B80181E08E0F8093B80169
:100B6000F0E0EB56FE4F80818093BB009091B8017E
:100B70008091B701981708F479CF85E88093BC007D
:100B80000AC085EC8093BC001092310204C0109220
:100B9000DC010E94A300FF91EF91BF91AF919F9163
:100BA0008F917F916F915F914F913F912F910F9016
:100BB0000FBE0F901F901895CF92DF92EF92FF9289
:100BC0000F931F93CF93DF931F92CDB7DEB7D62E2F
:100BD0007A0191E09093740198E6909353011092FA
:100BE000330210923202682F84E893E079830E94E6
:100BF00031017981019709F0BDC0909132029132A3
:100C000008F048C0809131028111FCCF22E020938E
:100C10003102109230022FEF2093DC011092FE017E
:100C20009093FD01A4E5B1E04DED51E0FA012E2FC6
:100C3000241B291718F42D912193F9CF1092FF014D
:100C40009091FF01906D9093FF0190912F02913050
:100C500061F410922F029091FF019093BB0090914C
:100C6000BC0093FDF8CF95EC01C095EE9093BC00CD
:100C7000909131029230E1F39091DC019F3F79F045
:100C80008091DC01803241F08091DC01803331F0D1
:100C900084E005C081E003C082E001C083E01092DF
:100CA00033021092320210927401882311F090E006
:100CB0006CC0809131028111FCCF8E2D813208F001
:100CC00080E291E090933102909330022FEF2093D5
:100CD000DC011092FE01280F2093FD019093FF018B
:100CE0009091FF01906D9093FF0190912F029130B0
:100CF00061F410922F029091FF019093BB009091AC
:100D0000BC0093FDF8CF95EC01C095EE9093BC002C
:100D1000909131029130E1F39091FE01981710F417
:100D20008091FE01ADEDB1E025E731E0F9019E2FA4
:100D3000921B981718F49D919193F9CF1092350258
:100D4000809334020D2D172FC12CD12C9091340299
:100D500080913502981789F0CE14DF0474F48FEF78
:100D6000C81AD80A84E893E00E94E500F80181934C
:100D70008F01ECCF86EF9FEF08C0CE14DF0419F08F
:100D800085EF9FEF02C080E090E00F90DF91CF9160
:100D90001F910F91FF90EF90DF90CF9008951F92D9
:100DA0000F920FB60F9211242F933F934F935F939F
:100DB0006F937F938F939F93AF93BF93EF93FF9323
:100DC000E0919C03F0919D03808180933A018CE92E
:100DD00093E00E946001FF91EF91BF91AF919F91CD
:100DE0008F917F916F915F914F913F912F910F90D4
:100DF0000FBE0F901F9018951F920F920FB60F9273
:100E000011242F933F934F935F936F937F938F930F
:100E10009F93AF93BF93EF93FF93E091A403F0915F
:100E2000A503808180933A0184EA93E00E946001E7
:100E3000FF91EF91BF91AF919F918F917F916F91B2
:100E40005F914F913F912F910F900FBE0F901F9088
:100E500018951F920F920FB60F9211242F933F9364
:100E60004F935F936F937F938F939F93AF93BF93B2
:100E7000EF93FF93E091AC03F091AD0380818093F9
:100E80003A018CEA93E00E946001FF91EF91BF91DB
:100E9000AF919F918F917F916F915F914F913F9112
:100EA0002F910F900FBE0F901F901895FC01918D00
:100EB000828D981761F0828DDF01A80FB11D5D96BC
:100EC0008C91928D9F5F9F73928F90E008958FEF2A
:100ED0009FEF0895FC01918D828D981731F0828DDE
:100EE000E80FF11D858D90E008958FEF9FEF089535
:100EF000FC01918D228D892F90E0805C9F4F821B99
:100F000091098F739927089587EE92E00E947807E0
:100F100021E0892B09F420E0822F0895FC01848DC3
:100F2000DF01A80FB11DA35ABF4F2C91848D90E013
:100F300001968F739927848FA689B7892C93A089EE
:100F4000B1898C9180648C93938D848D981306C0A5
:100F50000288F389E02D80818F7D80830895EF9250
:100F6000FF920F931F93CF93DF93EC0181E0888F63
:100F70009B8D8C8D981305C0E889F989808185FD4A
:100F800024C0F62E0B8D10E00F5F1F4F0F7311273B
:100F9000E02E8C8DE8120CC00FB607FCFACFE88962
:100FA000F989808185FFF5CFCE010E948E07F1CFB0
:100FB0008B8DFE01E80FF11DE35AFF4FF0820B8F7E
:100FC000EA89FB898081806207C0EE89FF8960839E
:100FD000E889F98980818064808381E090E0DF91F5
:100FE000CF911F910F91FF90EF900895CF93DF93D2
:100FF000EC01888D8823C9F0EA89FB89808185FD11
:1010000005C0A889B9898C9186FD0FC00FB607FC71
:10101000F5CF808185FFF2CFA889B9898C9185FFB2
:10102000EDCFCE010E948E07E7CFDF91CF910895DB
:1010300080E090E0892B29F00E94840781110C94B4
:1010400000000895833081F028F4813099F08230D7
:10105000A1F008958730A9F08830B9F08430D1F438
:10106000809180008F7D03C0809180008F77809376
:101070008000089584B58F7702C084B58F7D84BDCC
:1010800008958091B0008F7703C08091B0008F7D6C
:101090008093B00008950E949E161F920F920FB683
:1010A0000F9211242F933F934F935F936F937F93EE
:1010B0008F939F93AF93BF93EF93FF9387EE92E04D
:1010C0000E948E07FF91EF91BF91AF919F918F91F9
:1010D0007F916F915F914F913F912F910F900FBE34
:1010E0000F901F9018951F920F920FB60F92112418
:1010F0002F938F939F93EF93FF93E091F702F091DB
:10110000F8028081E091FD02F091FE0282FD12C0A2
:101110009081809100038F5F8F732091010382176C
:1011200051F0E0910003F0E0E951FD4F958F80937D
:10113000000301C08081FF91EF919F918F912F91CA
:101140000F900FBE0F901F901895CF93DF93282F0D
:1011500030E0F901E655FF4F8491F901E254FF4F69
:10116000D491F901EE52FF4FC491CC2391F081113B
:101170000E942208EC2FF0E0EE0FFF1FEA51FF4F14
:10118000A591B491EC91ED2381E090E021F480E011
:1011900002C080E090E0DF91CF9108951F93CF933C
:1011A000DF93282F30E0F901E655FF4F8491F901D4
:1011B000E254FF4FD491F901EE52FF4FC491CC237A
:1011C000C9F0162F81110E942208EC2FF0E0EE0FDB
:1011D000FF1FE056FF4FA591B4918FB7F8941111FE
:1011E00005C09C91ED2FE095E92302C0EC91ED2B19
:1011F000EC938FBFDF91CF911F910895CF92DF9233
:10120000EF92FF920F931F93CF93DF936C017A01BC
:101210008B01C0E0D0E0CE15DF0589F0D8016D91DB
:101220008D01D601ED91FC910190F081E02DC60178
:101230000995892B11F47E0102C02196ECCFC701DC
:10124000DF91CF911F910F91FF90EF90DF90CF90A2
:101250000895DF92EF92FF920F931F93CF93DF9346
:10126000082F10E0F801EE52FF4FE491EE2309F44D
:1012700053C06115710509F44FC0E33039F0E43013
:1012800041F0E23041F4CCEAD3E005C0C4EAD3E057
:1012900002C0CCE9D3E07B01D82EE881F9818081BE
:1012A0008D8387E090E00E947115DC0111961C92FD
:1012B0001E921496DC92149781E012968C931297EA
:1012C00016961C921E921597F801E254FF4FE49176
:1012D0001396EC9313971097F9F0EE81FF813097F6
:1012E00019F4BF83AE8308C085819681009711F001
:1012F000FC01FACFB683A5831196FC92EE929091F1
:1013000068008C81892B80936800EA81FB81908141
:1013100013968C91892B8083DF91CF911F910F9130
:10132000FF90EF90DF900895009769F0FC01019025
:101330000020E9F73197AF01481B590BBC0187EE3C
:1013400092E00C94FE0880E090E008958F929F92C6
:10135000AF92BF920F931F93CF93DF93CDB7DEB7BA
:10136000A1970FB6F894DEBF0FBECDBF19A24230D1
:1013700008F44AE08E010F5D1F4F842E912CA12CA2
:10138000B12CA50194010E94D516E62FB901CA011E
:1013900001501109EA3014F4E05D01C0E95CD801A4
:1013A000EC93232B242B252B61F7C8010E94940971
:1013B000A1960FB6F894DEBF0FBECDBFDF91CF91DF
:1013C0001F910F91BF90AF909F908F900895CF92F3
:1013D000DF92EF92FF92CF93DF936B017C01E0915C
:1013E000E702F091E8020190F081E02D6DE287EED6
:1013F00092E00995EC0166277727CB016C197D09EE
:101400008E099F094AE00E94A6098C0F9D1FDF915B
:10141000CF91FF90EF90DF90CF900895BC01990F8E
:10142000880B990B97FD0C94E7094AE00C94A609E8
:10143000CF93DF93CDB7DEB7A8970FB6F894DEBF92
:101440000FBECDBF789484B5826084BD84B58160C1
:1014500084BD85B5826085BD85B5816085BD80917F
:101460006E00816080936E001092810080918100F7
:1014700082608093810080918100816080938100EF
:10148000809180008160809380008091B1008460B1
:101490008093B1008091B00081608093B000809112
:1014A0007A00846080937A0080917A0082608093D1
:1014B0007A0080917A00816080937A0080917A002E
:1014C000806880937A001092C10067E070E089E93B
:1014D00093E00E94590368E070E086E993E00E947F
:1014E000590369E070E083E993E00E9459036AE0E0
:1014F00070E080E993E00E94590310923502109247
:10150000340210923302109232021092310281E0C2
:101510008093300210922F0261E082E10E94CE0897
:1015200061E083E10E94CE088091B9008E7F8093B4
:10153000B9008091B9008D7F8093B90088E48093D1
:10154000B80085E48093BC00E091F702F091F802C6
:1015500082E08083E091F302F091F4021082E09146
:10156000F502F091F60280E180831092FF02E09193
:10157000FB02F091FC0286E08083E091F902F09199
:10158000FA02808180618083E091F902F091FA0291
:10159000808188608083E091F902F091FA02808175
:1015A00080688083E091F902F091FA0280818F7D5A
:1015B000808368EB72E082E00E94290966E972E0AC
:1015C00083E00E94290964E772E084E00E9429090F
:1015D00062E572E085E00E94290960E372E086E03E
:1015E0000E9429096EE072E08CE00E94290941E026
:1015F00050E063E472E085E790E00E94DC059093A0
:10160000010180930001892BA9F061E08DE00E9427
:10161000CE086CE271E080E090E00E94D40160E0CE
:101620008DE00E94CE086CE271E080E090E00E94C4
:10163000D401EBCF1092E4021092E30260E273E077
:1016400080E090E00E94D4018CE291E00E94940935
:1016500083E391E00E94940900E213E08091E502A7
:101660009091E6020196813127E292072CF4909343
:10167000E6028093E50204C01092E6021092E502B1
:1016800080914202882309F446C0F8948091420276
:101690008093440280FF08C02091400230914102B3
:1016A00030935A022093590281FF08C020913E02D4
:1016B00030913F02309352022093510282FF08C0C2
:1016C00020913C0230913D02309358022093570202
:1016D000982F937041F020913A0230913B02309361
:1016E000540220935302982F957041F020913802B4
:1016F0003091390230934A0220934902877041F0B9
:1017000080913602909137029093500280934F025D
:101710001092420278941092440220915902309122
:101720005A02C901855893408B349440F0F4C901A2
:10173000A0E0B0E09C01AD012853344041095109BB
:10174000A2E3B5E00E94C21628E933E040E050E091
:101750000E94A316DA01C90182569D4FAF4FBF4FB9
:101760009093E4028093E30204C01093E402009398
:10177000E302209157023091580230935602209391
:101780005502C901855893408B34A4E09A0740F56F
:101790008552924085369105F8F0C901330FAA0BA6
:1017A000BB0B9C01AD012A5C334041095109A8E9FA
:1017B000BEEF0E94D01626E034E040E050E00E94E8
:1017C000A316DA01C9018C549F4FAF4FBF4F9093BE
:1017D0005C0280935B0204C010925C0210925B0278
:1017E0002091530230915402C901855893408B34A3
:1017F0009440E8F4C901A0E0B0E09C01AD012A5C8E
:10180000334041095109A8E5B0E00E94C21626E024
:1018100034E040E050E00E94A316DA01C9018C9741
:10182000A109B1099093B8028093B70204C0109245
:10183000B8021092B7022091510230915202C901B0
:10184000855893408B349440E8F4C901A0E0B0E09F
:101850009C01AD01285E334041095109A8E5B0E083
:101860000E94C21628EE33E040E050E00E94A3162A
:10187000DA01C9018C97A109B1099093C202809342
:10188000C10204C01092C2021092C10220914F0204
:1018900030915002C901A0E0B0E09C01AD01285E8A
:1018A000334041095109ABE0B0E00E94C21622EF7B
:1018B00033E040E050E00E94A316CA01B9016C5F1A
:1018C0007F4F8F4F9F4F0E94C1132DEC3CEC4CEC8F
:1018D0005DE30E94A51460934B0270934C028093C9
:1018E0004D0290934E022091490230914A02C90163
:1018F000A0E0B0E09C01AD01285E334041095109F0
:10190000A3E2B0E00E94C21622EF33E040E050E0D4
:101910000E94A316CA01B901615F7F4F8F4F9F4F8D
:101920000E94C1132DEC3CEC4CEC5DE30E94A5142D
:101930006093450270934602809347029093480259
:1019400060915B0270915C02072E000C880B990B72
:101950000E94C1132091AB023091AC024091AD02C4
:101960005091AE020E94A5149B01AC010E9434125A
:1019700020918F02309190024091910250919202F9
:101980000E94341269A37AA38BA39CA360938F0255
:101990007093900280939102909392024EE050E0F7
:1019A0006DE772E08BE390E00E94DC05909301010B
:1019B0008093000180917D0290917E0290937D0240
:1019C00080937E0280917F029091800290937F02AB
:1019D0008093800280918102909182029093810293
:1019E000809382028091830290918402909383027B
:1019F0008093840280918502909186029093850263
:101A0000809386028091870290918802909387024A
:101A1000809388028091890290918A029093890232
:101A200080938A026091850270918602072E000CD5
:101A3000880B990B0E94C1136D837E838F839887D7
:101A40006093790270937A0280937B0290937C0278
:101A50006091870270918802072E000C880B990B09
:101A60000E94C11369837A838B839C836093750280
:101A70007093760280937702909378026091890246
:101A800070918A02072E000C880B990B0E94C113DB
:101A9000698B7A8B8B8B9C8B609371027093720233
:101AA000809373029093740260917F027091800220
:101AB000072E000C880B990B0E94C1134B015C018F
:101AC00060917D0270917E02072E000C880B990BAD
:101AD0000E94C1136B017C016091810270918202AE
:101AE000072E000C880B990B0E94C1139B01AC01BF
:101AF0000E94A5142B013C01A5019401C501B4016C
:101B00000E94A514A30192010E9434120E9418158C
:101B10009B01AC01C701B6010E94B3122BED3FE05F
:101B200049E450E40E94341221EE3EE245E652E4DC
:101B30000E94A51420E030E044E353E40E943312F5
:101B40006D877E878F87988B60936D0270936E028E
:101B500080936F0290937002A7019601C701B601AE
:101B60000E94A5149B01AC01C301B2010E94341272
:101B70000E9418159B01AC01C501B4010E94B3126B
:101B80002BED3FE049E450E40E94341221EE3EE2A6
:101B900045E652E40E94A51420E030E044E353E41B
:101BA0000E9433129B01AC016093690270936A0238
:101BB00080936B0290936C026AE979E989E19EE374
:101BC0000E9433122B013C01609365027093660200
:101BD000809367029093680220E030E040E650E492
:101BE0006D857E858F8598890E94331269877A87F3
:101BF0008B879C876093610270936202809363027B
:101C0000909364022D813E814F81588560E070E0A1
:101C100080EF91E40E94331220E030E043E852E488
:101C20000E9417136D837E838F8398876093A3022E
:101C30007093A4028093A5029093A60269817A8191
:101C40008B819C81905820E030E040E052E40E947B
:101C5000331220E030E043E852E40E9417136D870E
:101C60007E878F87988B60939B0270939C028093F2
:101C70009D0290939E0269897A898B899C899058EC
:101C800020E030E048ED51E40E94331220E030E0E3
:101C900043E852E40E941713698B7A8B8B8B9C8BE1
:101CA00060938B0270938C0280938D0290938E02CE
:101CB0000E94AF01C0905D02D0905E02E0905F0292
:101CC000F09060026C197D098E099F090E94BF1374
:101CD00020E034E244E759E40E9417136B017C01D1
:101CE0006093AB027093AC028093AD029093AE020E
:101CF0009B01AC016D817E818F8198850E94A51426
:101D00002091C3023091C4024091C5025091C60295
:101D10000E94341224EA30E74DE75FE30E94A514E5
:101D20004B015C012AE037ED43E25CE3C301B20101
:101D30000E94A5149B01AC01C501B4010E9434129C
:101D40002B013C016093C3027093C4028093C502CF
:101D50009093C602A70196016D857E858F8598892F
:101D60000E94A5142091B9023091BA024091BB02A1
:101D70005091BC020E94341224EA30E74DE75FE341
:101D80000E94A5144B015C012AE037ED43E25CE3BD
:101D900069857A858B859C850E94A5149B01AC0181
:101DA000C501B4010E9434124B015C016093B90279
:101DB0007093BA028093BB029093BC02A701960174
:101DC00069897A898B899C890E94A5142091930244
:101DD0003091940240919502509196020E943412E3
:101DE0006DA37EA38FA398A7609393027093940230
:101DF00080939502909396020E94AF0160935D02DA
:101E000070935E0280935F02909360026091C102C2
:101E10007091C202072E000C880B990B0E94C1130F
:101E20009B01AC01C301B2010E9434122B013C01A1
:101E30002AE939E949E150E40E94A51469877A87C3
:101E40008B879C876093BD027093BE028093BF0214
:101E50009093C0026091B7027091B802072E000CF7
:101E6000880B990B0E94C1139B01AC01C501B40101
:101E70000E9434124B015C012AE939E949E150E43E
:101E80000E94A5146D8B7E8B8F8B988F6093B3020D
:101E90007093B4028093B5029093B602A7019601A5
:101EA000C301B2010E94A5142DEC3CEC4CE650E4B9
:101EB0000E94A5142091AF023091B0024091B1026E
:101EC0005091B2020E94341269837A838B839C837F
:101ED000A7019601C501B4010E94A5142DEC3CECAC
:101EE0004CE650E40E94A5142091A7023091A8026C
:101EF0004091A9025091AA020E9434124B015C0148
:101F000023E333E343E35FE36D817E818F81988533
:101F10000E94A514698F7A8F8B8F9C8F60939F028C
:101F20007093A0028093A1029093A20223E333E373
:101F300043E35FE36D857E858F8598890E94A514B4
:101F40006D8F7E8F8F8F98A3609397027093980206
:101F50008093990290939A0229A13AA14BA15CA186
:101F60006DA17EA18FA198A50E9434122B013C0186
:101F70009B01AC010E9434126D837E838F8398870E
:101F8000A7019601C301B2010E94A5142DEC3CECFF
:101F90004CE45FE30E94A5142091DB023091DC0247
:101FA0004091DD025091DE020E9434122B013C016F
:101FB0002AE939E949E95EE369897A898B899C894B
:101FC0000E94A5146D877E878F87988B6093D702B8
:101FD0007093D8028093D9029093DA0220E030E027
:101FE00040E253EC6D817E818F8198850E941213AF
:101FF00087FD11C020E030E040E253E46D817E8136
:102000008F8198850E94981418166CF480E090E0F7
:10201000A0E2B3E404C080E090E0A0E2B3EC8D83E2
:102020009E83AF83B8878D819E81AF81B885809371
:10203000DF029093E002A093E102B093E20220E07D
:1020400030E040EF51EC69817A818B819C810E9464
:10205000121387FD11C020E030E040EF51E46981A8
:102060007A818B819C810E94981418166CF480E010
:1020700090E0A0EFB1E404C080E090E0A0EFB1EC0C
:1020800089839A83AB83BC8389819A81AB81BC812C
:102090008093AF029093B002A093B102B093B202CA
:1020A00020E030E040EF51ECC501B4010E94121372
:1020B00087FD11C020E030E040EF51E4C501B401DC
:1020C0000E94981418166CF4812C912C20EFA22EEB
:1020D00021E4B22E06C0812C912C30EFA32E31ECDE
:1020E000B32E8092A7029092A802A092A902B09269
:1020F000AA0220E030E040EF51ECC301B2010E949F
:10210000121387FD11C020E030E040EF51E4C3011D
:10211000B2010E94981418166CF4412C512C80EFD7
:10212000682E81E4782E06C0412C512C90EF692E48
:1021300091EC792E4092DB025092DC026092DD023B
:102140007092DE0229813A814B815C8169857A85B2
:102150008B859C850E943412298D3A8D4B8D5C8D28
:102160000E94341269837A838B839C836093CF02AD
:102170007093D0028093D1029093D202A501940172
:102180006D897E898F89988D0E9434122D8D3E8DA8
:102190004F8D58A10E9434126B017C016093D302D1
:1021A0007093D4028093D5029093D6026091E3029B
:1021B0007091E402072E000C880B990B0E94C1134A
:1021C0004B015C012D813E814F8158850E94331265
:1021D000A30192010E9433122D853E854F855889B7
:1021E0000E94331269877A878B879C87A7019601A3
:1021F0000E94331229813A814B815C810E94341202
:102200000E948913698B7A8B8B8B9C8BA989BA89E5
:10221000B093CE02A093CD02A701960169857A857D
:102220008B859C850E94341229813A814B815C8187
:102230000E9433120E94891369877A878B879C8753
:10224000E985FA85F093CC02E093CB022D813E81A3
:102250004F815885C501B4010E943412A301920137
:102260000E9434122D853E854F8558890E94341274
:102270002B013C0129813A814B815C810E94331200
:10228000A70196010E9433120E9489134B015C0141
:102290007093CA026093C90229813A814B815C81A3
:1022A000C301B2010E943412A70196010E943412A8
:1022B0000E9489136B017C017093C8026093C7026E
:1022C00069897A8989E993E00E94240369857A857E
:1022D00083E993E00E942403B40186E993E00E941D
:1022E0002403B60180E993E00E94240389899A8936
:1022F0000E940E0A86E391E00E9494098091CB022D
:102300009091CC020E940E0A86E391E00E9494090B
:102310008091C9029091CA020E940E0A86E391E060
:102320000E9494096091C7027091C802072E000CA8
:10233000880B990B97FF03C00E94E70903C04AE08E
:102340000E94A60983E391E00E9494090E94180864
:1023500085C9E7EEF2E01382128288EE93E0A0E0F6
:10236000B0E084839583A683B78320E131E0318395
:10237000208325EC30E03587248724EC30E0378754
:10238000268720EC30E0318B208B21EC30E0338B42
:10239000228B22EC30E0358B248B26EC30E0378B1F
:1023A000268B118E128E138E148EE4E8F3E01382C6
:1023B000128284839583A683B78380E291E0918320
:1023C0008083EAEEF0E085919491ECEAF3E091836A
:1023D00080838BE690E09383828381E084831782FD
:1023E0001682ECEEF0E085919491E4EAF3E09183BB
:1023F00080838CE690E09383828382E084831782DB
:102400001682EEEEF0E085919491ECE9F3E0918391
:1024100080838DE690E09383828384E084831782B7
:10242000168289E993E00E94D10386E993E00E9435
:10243000D10383E993E00E94D10380E993E00C94F7
:10244000D103991B79E004C0991F961708F0961BD9
:10245000881F7A95C9F780950895EE0FFF1F0590A4
:10246000F491E02D09945058BB27AA270E944B12E3
:102470000C945E140E94501438F00E94571420F0FF
:1024800039F49F3F19F426F40C9426140EF4E095C9
:10249000E7FB0C942014E92F0E946F1458F3BA172D
:1024A000620773078407950720F079F4A6F50C946A
:1024B00091140EF4E0950B2EBA2FA02D0B01B9014B
:1024C00090010C01CA01A0011124FF27591B99F0AA
:1024D000593F50F4503E68F11A16F040A22F232FB6
:1024E000342F4427585FF3CF469537952795A79506
:1024F000F0405395C9F77EF41F16BA0B620B730BAD
:10250000840BBAF09150A1F0FF0FBB1F661F771F1D
:10251000881FC2F70EC0BA0F621F731F841F48F4D2
:10252000879577956795B795F7959E3F08F0B0CF5B
:102530009395880F08F09927EE0F97958795089542
:102540000E94501460F080E891E009F49EEF0E9430
:10255000571428F040E851E071F45EEF0CC00C9481
:1025600026140C949114E92FE0780E946F1440F324
:10257000092E052AB1F3261737074807590738F0FF
:102580000E2E07F8E02569F0E025E0640AC0EF634D
:1025900007F8009407FADB01B9019D01DC01CA01CB
:1025A000AD01EF930E942E130E945E140E94E3126D
:1025B0005F91552339F02BED3FE049E450FD49ECA4
:1025C0000C9434120895DF93DD27B92FBF7740E8CC
:1025D0005FE31616170648075B0718F4D92F0E9409
:1025E0009D149F938F937F936F930E945815E8E6F5
:1025F000F0E00E9429140E945E142F913F914F91A8
:102600005F910E94B814DD2351F09058A2EA2AEDA0
:102610003FE049EC5FE3D0785D270E944B12DF91E9
:102620000C945E140E94FC1308F481E008950E944B
:102630002B130C945E140E94571458F00E945014EF
:1026400040F029F45F3F29F00C94201451110C94B0
:1026500092140C9426140E946F1468F39923B1F31A
:10266000552391F3951B550BBB27AA2762177307B8
:10267000840738F09F5F5F4F220F331F441FAA1F4C
:10268000A9F335D00E2E3AF0E0E832D09150504008
:10269000E695001CCAF72BD0FE2F29D0660F771FB6
:1026A000881FBB1F261737074807AB07B0E809F09C
:1026B000BB0B802DBF01FF2793585F4F3AF09E3F21
:1026C000510578F00C9420140C9492145F3FE4F3BD
:1026D000983ED4F3869577956795B795F7959F5F64
:1026E000C9F7880F911D9695879597F90895E1E0B0
:1026F000660F771F881FBB1F621773078407BA070F
:1027000020F0621B730B840BBA0BEE1F88F7E09569
:1027100008950E9490136894B1110C949214089536
:102720000E94771488F09F5798F0B92F9927B751D6
:10273000B0F0E1F0660F771F881F991F1AF0BA9565
:10274000C9F714C0B13091F00E949114B1E008951E
:102750000C949114672F782F8827B85F39F0B93F10
:10276000CCF3869577956795B395D9F73EF4909518
:102770008095709561957F4F8F4F9F4F0895E89496
:1027800009C097FB3EF490958095709561957F4FB9
:102790008F4F9F4F9923A9F0F92F96E9BB27939567
:1027A000F695879577956795B795F111F8CFFAF477
:1027B000BB0F11F460FF1BC06F5F7F4F8F4F9F4FA8
:1027C00016C0882311F096E911C0772321F09EE806
:1027D000872F762F05C0662371F096E8862F70E06C
:1027E00060E02AF09A95660F771F881FDAF7880F46
:1027F0009695879597F90895990F0008550FAA0B9C
:10280000E0E8FEEF16161706E807F907C0F0121603
:102810001306E407F50798F0621B730B840B950B06
:1028200039F40A2661F0232B242B252B21F408955B
:102830000A2609F4A140A6958FEF811D811D0895F8
:1028400097F99F6780E870E060E008959FEF80EC63
:102850000895DF93CF931F930F93FF92EF92DF9230
:102860007B018C01689406C0DA2EEF010E94B81437
:10287000FE01E894A5912591359145915591A6F3D6
:10288000EF010E944B12FE019701A801DA9469F74B
:10289000DF90EF90FF900F911F91CF91DF910895FE
:1028A00000240A941616170618060906089500242F
:1028B0000A9412161306140605060895092E0394A9
:1028C000000C11F4882352F0BB0F40F4BF2B11F41D
:1028D00060FF04C06F5F7F4F8F4F9F4F089557FD7C
:1028E0009058440F551F59F05F3F71F04795880F7E
:1028F00097FB991F61F09F3F79F087950895121615
:1029000013061406551FF2CF4695F1DF08C01616C0
:1029100017061806991FF1CF869571056105089471
:102920000895E894BB2766277727CB0197F9089588
:102930000E94FC1308F48FEF08959B01AC0160E046
:1029400070E080E89FE30C9417130E94B8140C9475
:102950005E140E94501438F00E94571420F0952302
:1029600011F00C9420140C94261411240C9492143D
:102970000E946F1470F3959FC1F3950F50E0551F9F
:10298000629FF001729FBB27F00DB11D639FAA27C4
:10299000F00DB11DAA1F649F6627B00DA11D661F13
:1029A000829F2227B00DA11D621F739FB00DA11D34
:1029B000621F839FA00D611D221F749F3327A00DEE
:1029C000611D231F849F600D211D822F762F6A2F8A
:1029D00011249F5750409AF0F1F088234AF0EE0FEF
:1029E000FF1FBB1F661F771F881F91505040A9F71C
:1029F0009E3F510580F00C9420140C9492145F3F7C
:102A0000E4F3983ED4F3869577956795B795F79557
:102A1000E7959F5FC1F7FE2B880F911D96958795CF
:102A200097F9089519F416F40C9426140C945C1577
:102A30000E947714B8F39923C9F3B6F39F57550B47
:102A400087FF0E946A150024A0E640EA90018058A2
:102A50005695979528F4805C660F771F881F20F0A5
:102A600026173707480730F4621B730B840B2029A5
:102A700031294A2BA69517940794202531254A27FA
:102A800058F7660F771F881F20F02617370748076B
:102A900030F4620B730B840B200D311D411DA0958A
:102AA00081F7B901842F9158880F969587950895DD
:102AB0009B01AC010C94A5149F3F31F0915020F480
:102AC000879577956795B795880F911D969587950A
:102AD00097F9089591505040660F771F881FD2F7DD
:102AE0000895CF93DF938230910510F482E090E057
:102AF000E091B603F091B70320E030E0C0E0D0E011
:102B0000309711F14081518148175907C0F048179B
:102B1000590761F482819381209719F09B838A83FE
:102B20002BC09093B7038093B60326C021153105BF
:102B300019F04217530718F49A01BE01DF01EF01A3
:102B40000280F381E02DDCCF2115310509F1281B2E
:102B5000390B2430310590F412968D919C91139786
:102B60006115710521F0FB019383828304C090936A
:102B7000B7038093B603FD01329644C0FD01E20F16
:102B8000F31F81939193225031092D933C933AC0C6
:102B90002091B4033091B503232B41F4209104011B
:102BA000309105013093B5032093B40320910201C5
:102BB000309103012115310541F42DB73EB7409105
:102BC000060150910701241B350BE091B403F091ED
:102BD000B503E217F307A0F42E1B3F0B28173907A4
:102BE00078F0AC014E5F5F4F2417350748F04E0F69
:102BF0005F1F5093B5034093B4038193919302C038
:102C0000E0E0F0E0CF01DF91CF9108950F931F93A3
:102C1000CF93DF93009709F48CC0FC0132971382A5
:102C200012820091B6031091B7030115110581F4CA
:102C300020813181820F931F2091B4033091B5031D
:102C40002817390779F5F093B503E093B40371C001
:102C5000D80140E050E0AE17BF0750F412962D9116
:102C60003C911397AD012115310509F1D901F3CF3D
:102C70009D01DA013383228360817181860F971F62
:102C80008217930769F4EC0128813981260F371FD9
:102C90002E5F3F4F318320838A819B819383828380
:102CA000452B29F4F093B703E093B60342C0139683
:102CB000FC93EE931297ED01499159919E01240FD7
:102CC000351FE217F30771F480819181840F951FFE
:102CD000029611969C938E938281938113969C9376
:102CE0008E931297E0E0F0E0D80112968D919C91BE
:102CF0001397009719F0F8018C01F6CF8D919C91F4
:102D000098012E5F3F4F820F931F2091B4033091A3
:102D1000B5032817390769F4309729F41092B703DF
:102D20001092B60302C0138212821093B50300936F
:102D3000B403DF91CF911F910F91089581E090E04E
:102D4000F8940C940617052E97FB1EF400940E942D
:102D5000BA1657FD07D00E94D51607FC03D04EF4D3
:102D60000C94BA1650954095309521953F4F4F4F92
:102D70005F4F089590958095709561957F4F8F4F27
:102D80009F4F08950E94F716A59F900DB49F900D38
:102D9000A49F800D911D11240895B7FF0C94C216B5
:102DA0000E94C216821B930B0895A1E21A2EAA1B41
:102DB000BB1BFD010DC0AA1FBB1FEE1FFF1FA217EB
:102DC000B307E407F50720F0A21BB30BE40BF50BE8
:102DD000661F771F881F991F1A9469F76095709571
:102DE000809590959B01AC01BD01CF010895A29FF4
:102DF000B001B39FC001A39F700D811D1124911DCF
:102E0000B29F700D811D1124911D0895F894FFCF7C
:102E100001000000B8038000010000000000000075
:102E2000AF07FE08780756076A07F607000000009C
:102E300031010101F900E500D600D500647A69612D
:082E40006C61000D0A0009009D
:107800000C94343C0C94513C0C94513C0C94513CE1
:107810000C94513C0C94513C0C94513C0C94513CB4
:107820000C94513C0C94513C0C94513C0C94513CA4
:107830000C94513C0C94513C0C94513C0C94513C94
:107840000C94513C0C94513C0C94513C0C94513C84
:107850000C94513C0C94513C0C94513C0C94513C74
:107860000C94513C0C94513C11241FBECFEFD8E036
:10787000DEBFCDBF11E0A0E0B1E0ECE9FFE702C060
:1078800005900D92A230B107D9F712E0A2E0B1E065
:1078900001C01D92AD30B107E1F70E942D3D0C945F
:1078A000CC3F0C94003C982F959595959595959582
:1078B000905D8F708A307CF0282F295A8091C0000B
:1078C00085FFFCCF9093C6008091C00085FFFCCF60
:1078D0002093C6000895282F205DF0CF982F809127
:1078E000C00085FFFCCF9093C6000895EF92FF92F1
:1078F0000F931F93EE24FF2487018091C00087FD22
:1079000017C00894E11CF11C011D111D81E4E8164B
:1079100082E4F8068FE0080780E0180770F3E09132
:107920000401F091050109958091C00087FFE9CF1E
:107930008091C6001F910F91FF90EF9008950E94D3
:10794000763C982F8091C00085FFFCCF9093C600B5
:1079500091362CF490330CF09053892F089597555D
:10796000892F08951F930E949F3C182F0E949F3CCF
:107970001295107F810F1F9108951F93182F882350
:1079800021F00E94763C1150E1F71F9108951F935A
:10799000182F0E94763C803249F0809103018F5F5E
:1079A000809303018530C1F01F9108958091C0003C
:1079B00085FFFCCF84E18093C6008091C00085FFE5
:1079C000FCCF1093C6008091C00085FFFCCF80E102
:1079D0008093C6001F910895E0910401F091050184
:1079E00009951F9108950E94763C803241F0809164
:1079F00003018F5F80930301853081F008958091AA
:107A0000C00085FFFCCF84E18093C6008091C00058
:107A100085FFFCCF80E18093C6000895E0910401CA
:107A2000F09105010995089540E951E08823A1F0FE
:107A30002D9A28EE33E0FA013197F1F721503040CA
:107A4000D1F72D9828EE33E0FA013197F1F7215064
:107A50003040D1F7815061F708953F924F925F9285
:107A60006F927F928F929F92AF92BF92CF92DF924E
:107A7000EF92FF920F931F93CF93DF93000080E16B
:107A80008093C4001092C50088E18093C10086E015
:107A90008093C2005098589A259A81E00E94143D24
:107AA00024E1F22E9EE1E92E85E9D82E0FE0C02ECA
:107AB00010E1B12EAA24A394B1E49B2EA6E58A2E50
:107AC000F2E57F2EE0E26E2E79E4572E63E5462E36
:107AD00050E5352E0E94763C8033B1F18133B9F107
:107AE000803409F46FC0813409F476C0823409F41B
:107AF00085C0853409F488C0803531F1823521F1A3
:107B0000813511F1853509F485C0863509F48DC0BC
:107B1000843609F496C0843709F403C1853709F423
:107B200072C1863709F466C0809103018F5F80932C
:107B30000301853079F6E0910401F0910501099582
:107B40000E94763C803351F60E94F33CC3CF0E94E2
:107B5000763C803249F78091C00085FFFCCFF092DF
:107B6000C6008091C00085FFFCCF9092C600809136
:107B7000C00085FFFCCF8092C6008091C00085FFC9
:107B8000FCCF7092C6008091C00085FFFCCF609250
:107B9000C6008091C00085FFFCCF5092C600809146
:107BA000C00085FFFCCF4092C6008091C00085FFD9
:107BB000FCCF3092C6008091C00085FFFCCFB09210
:107BC000C60088CF0E94763C863808F4BDCF0E945C
:107BD000763C0E94F33C7ECF0E94763C803809F4CC
:107BE0009CC0813809F40BC1823809F43CC1883942
:107BF00009F48FC080E00E94C73C6CCF84E10E94F2
:107C0000BD3C0E94F33C66CF85E00E94BD3C0E94D3
:107C1000F33C60CF0E94763C809306010E94763C44
:107C2000809307010E94F33C55CF0E94763C80333D
:107C300009F41DC183E00E94BD3C80E00E94C73C66
:107C400049CF0E94763C809309020E94763C809343
:107C5000080280910C028E7F80930C020E94763C79
:107C6000853409F415C18091080290910902892B8D
:107C700089F000E010E00E94763CF801E85FFE4FDA
:107C800080830F5F1F4F80910802909109020817AF
:107C9000190788F30E94763C803209F045CF809125
:107CA0000C0280FF01C16091060170910701660F0F
:107CB000771F7093070160930601A0910802B091AD
:107CC00009021097C9F0E8E0F1E09B01AD014E0F09
:107CD0005F1FF999FECF32BD21BD819180BDFA9A17
:107CE000F99A2F5F3F4FE417F50799F76A0F7B1F4B
:107CF00070930701609306018091C00085FFFCCF5F
:107D0000F092C6008091C00085FFFCCFB092C60003
:107D1000E1CE83E00E94C73CDDCE82E00E94C73CFA
:107D2000D9CE0E94763C809309020E94763C8093D3
:107D300008028091060190910701880F991F909386
:107D40000701809306010E94763C853409F4A6C0A1
:107D500080910C028E7F80930C020E94763C8032D0
:107D600009F0B8CE8091C00085FFFCCFF092C6002C
:107D7000609108027091090261157105B9F140E046
:107D800050E080910C02A82FA170B82FB27011C0E2
:107D9000BB2309F45CC0E0910601F0910701319624
:107DA000F0930701E09306014F5F5F4F46175707B7
:107DB000E8F4AA2369F3F999FECF209106013091E6
:107DC000070132BD21BDF89A90B58091C00085FFB2
:107DD000FCCF9093C6002F5F3F4F30930701209355
:107DE00006014F5F5F4F4617570718F38091C00099
:107DF00085FDE5CE8091C00085FFF8CFE0CE81E023
:107E00000E94C73C67CE0E94763C803209F08CCE3F
:107E10008091C00085FFFCCFF092C6008091C00029
:107E200085FFFCCFE092C6008091C00085FFFCCFAB
:107E3000D092C6008091C00085FFFCCFC092C600E2
:107E40008091C00085FFFCCFB092C60043CEE09188
:107E50000601F091070194918091C00085FFFCCF4D
:107E60009093C6009CCF80E10E94C73C33CE0E9415
:107E7000763C0E94763C182F0E94763C112309F430
:107E800083C0113009F484C08FE00E94C73C22CE29
:107E900080910C02816080930C02E5CE80910C02EF
:107EA000816080930C0259CF809107018823880F4D
:107EB000880B8A2180930B02809106019091070123
:107EC000880F991F90930701809306018091080203
:107ED00080FF09C080910802909109020196909359
:107EE000090280930802F894F999FECF1127E091D6
:107EF0000601F0910701C8E0D1E08091080290915D
:107F00000902103091F40091570001700130D9F34B
:107F100003E000935700E89500915700017001308D
:107F2000D9F301E100935700E89509901990009169
:107F3000570001700130D9F301E000935700E89534
:107F40001395103498F011270091570001700130FB
:107F5000D9F305E000935700E895009157000170B0
:107F60000130D9F301E100935700E895329602976A
:107F700009F0C7CF103011F00296E5CF112480919F
:107F8000C00085FFB9CEBCCE8EE10E94C73CA2CD19
:0C7F900085E90E94C73C9ECDF894FFCF0D
:027F9C00800063
:040000030000780081
:00000001FF