:100000000C9458000C9480000C9480000C94800098
:100010000C9480000C9480000C9480000C94800060
:100020000C9480000C9480000C9480000C94800050
:100030000C9480000C9480000C9480000C94800040
:100040000C94E5010C9480000C9480000C948000CA
:100050000C9480000C9480000C9480000C94800020
:100060000C942F020C948000000000002500280052
:100070002B00040404040404040402020202020229
:10008000030303030303010204081020408001025C
:1000900004081020010204081020000000080002DB
:1000A0000100000304070000000000000000160427
:1000B00011241FBECFEFD8E0DEBFCDBF11E0A0E01E
:1000C000B1E0E8E6F8E002C005900D92A031B1077A
:1000D000D9F721E0A0E1B1E001C01D92A03CB20738
:1000E000E1F710E0C8E5D0E004C02197FE010E94CE
:1000F0002704C735D107C9F70E945D030C94320469
:100100000C94000090E0FC01E656FF4F2491FC01A6
:10011000EA57FF4F3491FC01EE58FF4FE491EE2374
:10012000B1F1222339F1233091F038F42130A9F0D4
:10013000223001F584B58F7D12C0273091F0283030
:10014000A1F02430B9F4809180008F7D03C08091AC
:1001500080008F77809380000DC084B58F7784BD39
:1001600009C08091B0008F7703C08091B0008F7D6F
:100170008093B000F0E0EE0FFF1FE859FF4FA5910C
:10018000B4918FB7F894EC913E2B3C938FBF0895B8
:10019000CF92DF92EF92FF920F931F93CF93DF9353
:1001A0006C017A018B01C0E0D0E0CE15DF0589F04B
:1001B000D8016D918D01D601ED91FC910190F081F6
:1001C000E02DC6010995892B11F47E0102C021960C
:1001D000ECCFC701DF91CF911F910F91FF90EF906E
:1001E000DF90CF900895E091AD01F091AE0130978E
:1001F00029F01092A6011092A50109940895CF93B9
:10020000DF93AC01E0913001F09131013097F1F0D2
:100210009091A8018091A7019817C0F090E0292F34
:1002200030E02617370754F4D901A05FBE4FEA012A
:10023000C20FD31F88818C939F5FF1CF1092A801CA
:100240006093A701CB01DF91CF910994DF91CF910A
:1002500008953FB7F89480919E0190919F01A091DD
:10026000A001B091A10126B5A89B05C02F3F19F0B0
:100270000196A11DB11D3FBFBA2FA92F982F882726
:10028000820F911DA11DB11DBC01CD0142E0660F81
:10029000771F881F991F4A95D1F7089585ED8093A0
:1002A000BC008091BC0084FDFCCF1092A401089595
:1002B00040915201262F30E0240F311D21323105AB
:1002C000DCF42091A4012430C9F4FC0180E090E02A
:1002D000861758F4309152012191DC01AE5CBE4F7B
:1002E000A30FB11D2C930196F3CF80915201680F9B
:1002F0006093520180E0089581E0089582E00895BE
:100300000895E091A8018091A701E81730F4F0E08A
:10031000E05FFE4F808190E008958FEF9FEF08959A
:100320009091A8018091A701981750F4E92FF0E06F
:10033000E05FFE4F208130E09F5F9093A80102C0F4
:100340002FEF3FEFC90108958091A70190E0209120
:10035000A801821B91090895CF93DF9300D0CDB7F8
:10036000DEB7CB01642F49835A830E94580149812B
:10037000842F5A81952F0F900F90DF91CF91089580
:1003800045E050E06FEA71E084EB91E00E94AC013F
:10039000EFEAF1E080818F5F819381E0E43BF80731
:1003A000C9F70895CF93DF931F92CDB7DEB7698366
:1003B00061E0CE0101960E94580181E090E00F902B
:1003C000DF91CF9108950E942D041F920F920FB6D6
:1003D0000F9211242F933F938F939F93AF93BF93CB
:1003E00080919A0190919B01A0919C01B0919D01F7
:1003F0003091990123E0230F2D3720F40196A11DA0
:10040000B11D05C026E8230F0296A11DB11D209342
:10041000990180939A0190939B01A0939C01B093C2
:100420009D0180919E0190919F01A091A001B091AA
:10043000A1010196A11DB11D80939E0190939F0182
:10044000A093A001B093A101BF91AF919F918F9113
:100450003F912F910F900FBE0F901F9018951F92F4
:100460000F920FB60F9211242F933F934F935F93E8
:100470006F937F938F939F93AF93BF93EF93FF936C
:100480008091B900887F803609F49CC068F5883275
:1004900009F45BC090F4803109F454C038F4882327
:1004A00009F4F6C0883009F44DC0F6C0883109F46B
:1004B0004CC0803209F45DC0EFC0803409F468C0DC
:1004C00048F4803309F455C0883309F0E5C08093BF
:1004D0007501D8C0803509F44FC0883509F45DC076
:1004E000883409F0D9C0D6C0883909F4C7C0A8F447
:1004F000883709F467C038F4883609F463C0803758
:1005000009F460C0C9C0883809F4B8C0803909F45A
:100510005FC0803809F0C0C05BC0803B09F486C072
:1005200038F4803A09F466C0883A09F47FC0B4C050
:10053000803C09F4A7C0883C09F4A4C0883B09F4B6
:100540008AC0AAC08091980110C0909197018091B3
:100550009601981770F5E091970181E08E0F8093D6
:100560009701F0E0EA58FE4F80818093BB0085EC54
:1005700086C0809375018EC0E091970181E08E0F57
:10058000809397018091BB00F0E0EA58FE4F808392
:1005900090919701809196016EC0E091970181E062
:1005A0008E0F809397018091BB00F0E0EA58FE4FD8
:1005B00080838091A30181116DC081E08093A201AD
:1005C00084EA61C083E08093A40110927401CFCFCC
:1005D00080917401803208F051C0E091740181E093
:1005E0008E0F809374018091BB00F0E0EC5AFE4FB7
:1005F0008083BDCF85EC8093BC001092A4018091D4
:100600007401803230F4E0917401F0E0EC5AFE4F56
:1006100010826091740170E0E091A901F091AA014B
:1006200084E591E009951092740136C084E08093CE
:10063000A4011092530110925201E091AB01F0918C
:10064000AC01099580915201811105C081E0809330
:10065000520110923201E091530181E08E0F80939C
:100660005301F0E0EE5CFE4F80818093BB009091DF
:10067000530180915201981708F479CF85E880934F
:10068000BC000AC085EC8093BC001092A40104C099
:10069000109275010E944E01FF91EF91BF91AF91B1
:1006A0009F918F917F916F915F914F913F912F918A
:1006B0000F900FBE0F901F901895789484B58260AC
:1006C00084BD84B5816084BD85B5826085BD85B5F6
:1006D000816085BD80916E00816080936E00109274
:1006E00081008091810082608093810080918100EF
:1006F0008160809381008091800081608093800080
:100700008091B10084608093B1008091B0008160DD
:100710008093B00080917A00846080937A00809109
:100720007A00826080937A0080917A008160809361
:100730007A0080917A00806880937A001092C100DC
:1007400080E18093BA0083EF90E09093AC018093B6
:10075000AB018FEF90E09093AA018093A9011092D2
:10076000A8011092A7011092A6011092A501109263
:10077000A40181E08093A3011092A20182E10E9472
:10078000820083E10E9482008091B9008E7F809375
:10079000B9008091B9008D7F8093B90088E480937F
:1007A000B80085E48093BC0080EC91E09093AE01AA
:1007B0008093AD0182E08093AF0183E08093B0012C
:1007C00084E08093B10185E08093B20186E080935C
:1007D000B301C0E0D0E00E9429014B015C0184E636
:1007E000C82ED12CE12CF12C0E942901DC01CB0177
:1007F00088199909AA09BB09883E9340A105B1054A
:1008000058F021E0C21AD108E108F10888EE880EFC
:1008100083E0981EA11CB11CC114D104E104F104B1
:1008200019F72097C1F20E940000D5CFE4EBF1E068
:100830001382128288EE93E0A0E0B0E08483958377
:10084000A683B78384E091E0918380830895EE0FBF
:10085000FF1F0590F491E02D099481E090E0F89459
:080860000C943204F894FFCF60
:1008680000000000D201AC01A401900181018001C7
:107E0000112484B714BE81FFF0D085E080938100F7
:107E100082E08093C00088E18093C10086E0809377
:107E2000C20080E18093C4008EE0C9D0259A86E02C
:107E300020E33CEF91E0309385002093840096BBD3
:107E4000B09BFECF1D9AA8958150A9F7CC24DD24C4
:107E500088248394B5E0AB2EA1E19A2EF3E0BF2EE7
:107E6000A2D0813461F49FD0082FAFD0023811F036
:107E7000013811F484E001C083E08DD089C08234E0
:107E800011F484E103C0853419F485E0A6D080C0E4
:107E9000853579F488D0E82EFF2485D0082F10E0AE
:107EA000102F00270E291F29000F111F8ED06801E7
:107EB0006FC0863521F484E090D080E0DECF843638
:107EC00009F040C070D06FD0082F6DD080E0C81688
:107ED00080E7D80618F4F601B7BEE895C0E0D1E017
:107EE00062D089930C17E1F7F0E0CF16F0E7DF06D8
:107EF00018F0F601B7BEE89568D007B600FCFDCFD4
:107F0000A601A0E0B1E02C9130E011968C91119780
:107F100090E0982F8827822B932B1296FA010C0160
:107F200087BEE89511244E5F5F4FF1E0A038BF0790
:107F300051F7F601A7BEE89507B600FCFDCF97BE46
:107F4000E89526C08437B1F42ED02DD0F82E2BD052
:107F50003CD0F601EF2C8F010F5F1F4F84911BD097
:107F6000EA94F801C1F70894C11CD11CFA94CF0C13
:107F7000D11C0EC0853739F428D08EE10CD085E9AC
:107F80000AD08FE07ACF813511F488E018D01DD067
:107F900080E101D065CF982F8091C00085FFFCCF94
:107FA0009093C60008958091C00087FFFCCF809118
:107FB000C00084FD01C0A8958091C6000895E0E648
:107FC000F0E098E1908380830895EDDF803219F02E
:107FD00088E0F5DFFFCF84E1DECF1F93182FE3DFCA
:107FE0001150E9F7F2DF1F91089580E0E8DFEE27F6
:047FF000FF270994CA
:027FFE00040479
:0400000300007E007B
:00000001FF