:100000000C9435000C945D000C945D000C945D0024
:100010000C945D000C945D000C945D000C945D00EC
:100020000C945D000C945D000C945D000C945D00DC
:100030000C945D000C945D000C945D000C945D00CC
:100040000C94B0060C945D000C947E060C9458063B
:100050000C945D000C945D000C945D000C945D00AC
:100060000C94FA060C945D00280811241FBECFEFF3
:10007000D8E0DEBFCDBF11E0A0E0B1E0E6EBF9E1F2
:1000800002C005900D92A632B107D9F723E0A6E28F
:10009000B1E001C01D92A733B207E1F710E0C5E35C
:1000A000D0E004C02197FE010E94BE0AC433D107EC
:1000B000C9F70E9464080C94D90C0C94000020919C
:1000C0007E0290917D02213208F04AC080915A024E
:1000D0008111FCCF32E030935A0231E03093590263
:1000E0003FEF309358021092570220935602ADE52D
:1000F000B2E046E352E0FA013E2F341B321718F407
:100100003D913193F9CF1092350220913502990F2C
:10011000922B9093350290913402913061F41092B9
:100120003402909135029093BB009091BC0093FDF6
:10013000F8CF95EC01C095EE9093BC0090915A02D7
:100140009230E1F3909158029F3F79F080915802EC
:10015000803241F080915802803331F084E005C054
:1001600081E003C082E001C083E010925C02109243
:100170007E0210925B020895CF92DF92EF92FF927F
:100180000F931F93CF93DF936C017A018B01C0E033
:10019000D0E0CE15DF0589F0D8016D918D01D60133
:1001A000ED91FC910190F081E02DC6010995892B1C
:1001B00011F47E0102C02196ECCFC701DF91CF91EF
:1001C0001F910F91FF90EF90DF90CF900895FC0169
:1001D000918D828D981761F0828DDF01A80FB11D7E
:1001E0005D968C91928D9F5F9F73928F90E00895A2
:1001F0008FEF9FEF0895FC01918D828D981731F05C
:10020000828DE80FF11D858D90E008958FEF9FEFAF
:100210000895FC01918D228D892F90E0805C9F4F85
:10022000821B91098F73992708958FE792E00E94AE
:10023000090121E0892B09F420E0822F0895FC01B7
:10024000848DDF01A80FB11DA35ABF4F2C91848D5F
:1002500090E001968F739927848FA689B7892C9394
:10026000A089B1898C9180648C93938D848D98132F
:1002700006C00288F389E02D80818F7D80830895F8
:10028000EF92FF920F931F93CF93DF93EC0181E0E6
:10029000888F9B8D8C8D981305C0E889F9898081A2
:1002A00085FD24C0F62E0B8D10E00F5F1F4F0F73DE
:1002B0001127E02E8C8DE8120CC00FB607FCFACF88
:1002C000E889F989808185FFF5CFCE010E941F0161
:1002D000F1CF8B8DFE01E80FF11DE35AFF4FF08245
:1002E0000B8FEA89FB898081806207C0EE89FF89D4
:1002F0006083E889F98980818064808381E090E06F
:10030000DF91CF911F910F91FF90EF900895CF93C0
:10031000DF93EC01888D8823C9F0EA89FB8980810D
:1003200085FD05C0A889B9898C9186FD0FC00FB6DF
:1003300007FCF5CF808185FFF2CFA889B9898C9120
:1003400085FFEDCFCE010E941F01E7CFDF91CF9156
:10035000089580E090E0892B29F00E941501811119
:100360000C94000008953FB7F89480919401909107
:100370009501A0919601B091970126B5A89B05C063
:100380002F3F19F00196A11DB11D3FBFBA2FA92F14
:10039000982F8827820F911DA11DB11DBC01CD0191
:1003A00042E0660F771F881F991F4A95D1F708957D
:1003B0004F925F926F927F928F929F92AF92BF9275
:1003C000CF92DF92EF92FF920F931F93CF93DF9321
:1003D000CDB7DEB76C970FB6F894DEBF0FBECDBFBA
:1003E0008C014D8B5E8B6F8B788F0E94B3010E94C6
:1003F000D90BD801DC962D913D914D915C91DF9701
:100400000E94C40A20E034E244E759E40E94310B20
:100410006B017C01F80160AF71AF82AF93AF80894F
:100420009189A289B38989879A87AB87BC879C0108
:10043000AD0160E070E0CB010E94C40A9B01AC01F9
:10044000F801648B758B868B978BC701B6010E9470
:10045000670CD8011C962D913D914D915C911F9791
:100460000E94C50A6D877E878F87988BF80144A00C
:1004700055A066A077A0848D958DA68DB78D8983B4
:100480009A83AB83BC839C01AD01C301B2010E947E
:10049000C50A9B01AC01C701B6010E94670C4B0164
:1004A0005C01F8012081318142815381C701B6018D
:1004B0000E94670C9B01AC01C501B4010E94C50AF2
:1004C000D80158962D913D914D915C915B970E947A
:1004D000C50A6D837E838F839887A3019201C7012C
:1004E000B6010E94670C4B015C019B01AC01698164
:1004F0007A818B819C810E94C40A69837A838B8371
:100500009C83A5019401F80160A171A182A193A12E
:100510000E94C40A698B7A8B8B8B9C8BD8011496B2
:100520002D913D914D915C911797C701B6010E94A5
:10053000670C9B01AC01C301B2010E94C50A698F1F
:100540007A8F8B8F9C8FF80120853185428553856A
:100550006D817E818F8198850E94C50A6B017C0127
:10056000D801D0966D937D938D939C93D3979B01E7
:10057000AC016D817E818F8198850E94310B4B018A
:100580005C01F80160A771A782A793A7A701960154
:1005900069897A898B899C890E94310B6B017C0166
:1005A000D8019C966D937D938D939C939F972D85F9
:1005B0003E854F8558896D897E898F89988D0E94E7
:1005C000C40A2B013C01F80164AB75AB86AB97AB59
:1005D0009B01AC01C501B4010E94670C9B01AC01F9
:1005E0006D857E858F8598890E94C50AD8011C96E5
:1005F0006D937D938D939C931F97A3019201C701E7
:10060000B6010E94670C9B01AC0169857A858B85D8
:100610009C850E94C50AF801608B718B828B938B3D
:100620002D813E814F815885C501B4010E94670C20
:100630009B01AC016D817E818F8198850E94C40AE7
:100640002B013C01D80158966D937D938D939C931B
:100650005B9729813A814B815C81C501B4010E947D
:10066000670C9B01AC0169817A818B819C810E941E
:10067000C40A4B015C01F801648F758F868F978FD8
:10068000A3019201C701B6010E94670C9B01AC0156
:1006900069897A898B899C890E94C40AD8019096BD
:1006A0006D937D938D939C939397A5019401C701BE
:1006B000B6010E94670C9B01AC01698D7A8D8B8D10
:1006C0009C8D0E94C40AF80164A375A386A397A316
:1006D0000E94B3010E94D90BD801DC966D937D93E3
:1006E0008D939C93DF971C966D917D918D919C913C
:1006F0001F976C960FB6F894DEBF0FBECDBFDF918B
:10070000CF911F910F91FF90EF90DF90CF90BF900E
:10071000AF909F908F907F906F905F904F900895D3
:1007200080918E0190E020918D01821B91090895A6
:1007300085ED8093BC008091BC0084FDFCCF1092BD
:100740005A02089540914801262F30E0240F311DB0
:1007500021323105DCF420915A022430C9F4FC0125
:1007600080E090E0861758F4309148012191DC0137
:10077000AA5DBE4FA30FB11D2C930196F3CF8091BC
:100780004801680F6093480180E0089581E0089572
:1007900082E008950895E0918D0180918E01E8171F
:1007A00030F4F0E0E359FE4F808190E008958FEF40
:1007B0009FEF089590918D0180918E01981750F4CC
:1007C000E92FF0E0E359FE4F208130E09F5F9093E6
:1007D0008D0102C02FEF3FEFC9010895CF92DF9244
:1007E000EF92FF920F931F93CF93DF937C01262FFD
:1007F000972F8A0180915B02882391F0C62FD72F13
:100800006E01C40ED51ECC15DD0571F06991D701BE
:10081000ED91FC910190F081E02DC7010995F3CF96
:10082000642F822F0E94A203C801DF91CF911F91F4
:100830000F91FF90EF90DF90CF900895CF93DF93CB
:100840001F92CDB7DEB7698320915B022223D1F0DE
:1008500020917E02203240F021E030E0FC01338321
:10086000228380E090E015C080915C02E82FF0E0E8
:10087000E35AFD4F998190838F5F80935C02809350
:100880007E0205C061E0CE0101960E94A20381E0D4
:1008900090E00F90DF91CF910895CF93DF93EA011D
:1008A00091E090935B0280937D0210925C02109223
:1008B0007E028CE193E00E941E0468818CE193E04B
:1008C0000E941E040E945F0091E0811190E0892F38
:1008D000DF91CF910895009769F0FC01019000200D
:1008E000E9F73197AF01481B590BBC018FE792E044
:1008F0000C94BC0080E090E008958F929F92AF929C
:10090000BF920F931F93CF93DF93CDB7DEB7A1971D
:100910000FB6F894DEBF0FBECDBF19A2423008F467
:100920004AE08E010F5D1F4F842E912CA12CB12C1B
:10093000A50194010E949C0AE62FB901CA01015049
:100940001109EA3014F4E05D01C0E95CD801EC93D0
:10095000232B242B252B61F7C8010E946B04A19641
:100960000FB6F894DEBF0FBECDBFDF91CF911F91C0
:100970000F91BF90AF909F908F900895CF92DF928C
:10098000EF92FF92CF93DF936B017C01E0917F02A6
:10099000F09180020190F081E02D6DE28FE792E00E
:1009A0000995EC0166277727CB016C197D098E0923
:1009B0009F094AE00E947D048C0F9D1FDF91CF911B
:1009C000FF90EF90DF90CF900895BC01990F880BB6
:1009D000990B97FD0C94BE044AE00C947D042F9271
:1009E0003F924F925F926F927F928F929F92AF92BF
:1009F000BF92CF92DF92EF92FF920F931F93CF930C
:100A0000DF93CDB7DEB727970FB6F894DEBF0FBEE2
:100A1000CDBF8F83962E4E8359018FB7F894C09027
:100A20009001D0909101E0909201F09093018FBFDE
:100A30005F81550F5B83812C312C222423945E81AE
:100A4000452F50E05D834C832801612C712C4E8131
:100A5000841608F09DC020925B025F8150937D0256
:100A600010925C0210927E02692D8CE193E00E944C
:100A70001E040E945F0020925B0210925C021092A2
:100A80007E0280915A028111FCCF2C813D81281970
:100A900031092132310514F020E230E0213208F032
:100AA00020E220925A02209259028FEF809358023E
:100AB00010925702820F8093560220923502809145
:100AC00035024B81842B8093350280913402813032
:100AD00071F410923402809135028093BB008091B2
:100AE000BC0083FDF8CF55EC5093BC0003C085EEED
:100AF0008093BC0080915A028130E1F380915702CB
:100B0000821710F420915702A6E3B2E0EDE6F1E07F
:100B10008E2F4DE651E0841B821718F48D9181933E
:100B2000F7CF10928D0120938E0190918E018091CC
:100B30008D01981739F10115110581F4A501430DB7
:100B4000511D37FC5A955A8349838CE193E00E94EA
:100B5000DA03E981FA8180833394E7CF2FB7F894E1
:100B60008091900190919101A0919201B091930197
:100B70002FBF8C199D09AE09BF0984159505A605DF
:100B8000B705E0F28E81813208F080E2880E5FCFF7
:100B9000832D0115110501F19FB7F8944091900143
:100BA0005091910160919201709193019FBF4C19F6
:100BB0005D096E097F0920E030E0401751076207A8
:100BC000730750F09E81492F50E0232D330C330BD7
:100BD000241735070CF48FEF27960FB6F894DEBF75
:100BE0000FBECDBFDF91CF911F910F91FF90EF907E
:100BF000DF90CF90BF90AF909F908F907F906F903D
:100C00005F904F903F902F900895BF92CF92DF92C8
:100C1000EF92FF920F931F93CF93DF9300D0CDB746
:100C2000DEB7F82EE62EC42EB22ED02E08EE13E03C
:100C30009E012E5F3F4F41E00E94EF04882349F15F
:100C40004C2D50E04B1951094F5F5F4F21E030E0D0
:100C500002C0220F331FBA94E2F721503109042E4B
:100C600001C0220F0A94EAF78D2D01C0880F4A9522
:100C7000EAF7322F30959A8193232823292B2A8350
:100C80002983AE014F5F5F4F6E2D8F2D0E944D0463
:100C900001C080E00F900F90DF91CF911F910F91D5
:100CA000FF90EF90DF90CF90BF9008950E94D40CFA
:100CB0001F920F920FB60F9211242F933F934F93D1
:100CC0005F936F937F938F939F93AF93BF93EF93B4
:100CD000FF938FE792E00E941F01FF91EF91BF9178
:100CE000AF919F918F917F916F915F914F913F91C4
:100CF0002F910F900FBE0F901F9018951F920F927B
:100D00000FB60F9211242F938F939F93EF93FF931E
:100D1000E0918F02F09190028081E0919502F09134
:100D2000960282FD12C09081809198028F5F8F732E
:100D300020919902821751F0E0919802F0E0E15879
:100D4000FD4F958F8093980201C08081FF91EF91B4
:100D50009F918F912F910F900FBE0F901F9018951C
:100D60001F920F920FB60F9211242F933F938F93E0
:100D70009F93AF93BF938091900190919101A09127
:100D80009201B091930130918F0123E0230F2D3711
:100D900020F40196A11DB11D05C026E8230F02967F
:100DA000A11DB11D20938F0180939001909391011B
:100DB000A0939201B0939301809194019091950139
:100DC000A0919601B09197010196A11DB11D80934C
:100DD000940190939501A0939601B0939701BF91D0
:100DE000AF919F918F913F912F910F900FBE0F90D8
:100DF0001F9018951F920F920FB60F9211242F93E8
:100E00003F934F935F936F937F938F939F93AF9392
:100E1000BF93EF93FF938091B900887F803609F4E8
:100E20009CC068F5883209F45BC090F4803109F405
:100E300054C038F4882309F4F6C0883009F44DC052
:100E4000F6C0883109F44CC0803209F45DC0EFC0AF
:100E5000803409F468C048F4803309F455C08833FD
:100E600009F0E5C080935802D8C0803509F44FC01E
:100E7000883509F45DC0883409F0D9C0D6C08839F6
:100E800009F4C7C0A8F4883709F467C038F4883675
:100E900009F463C0803709F460C0C9C0883809F418
:100EA000B8C0803909F45FC0803809F0C0C05BC0A9
:100EB000803B09F486C038F4803A09F466C0883A69
:100EC00009F47FC0B4C0803C09F4A7C0883C09F491
:100ED000A4C0883B09F48AC0AAC08091350210C022
:100EE0009091570280915602981770F5E091570241
:100EF00081E08E0F80935702F0E0EA5CFD4F808125
:100F00008093BB0085EC86C0809358028EC0E09130
:100F1000570281E08E0F809357028091BB00F0E072
:100F2000EA5CFD4F808390915702809156026EC01B
:100F3000E091570281E08E0F809357028091BB00B1
:100F4000F0E0EA5CFD4F80838091590281116DC011
:100F500081E08093340284EA61C083E080935A0286
:100F600010926C01CFCF80916C01803208F051C09B
:100F7000E0916C0181E08E0F80936C018091BB0049
:100F8000F0E0E45BFE4F8083BDCF85EC8093BC0036
:100F900010925A0280916C01803230F4E0916C0121
:100FA000F0E0E45BFE4F108260916C0170E0E09134
:100FB0004A01F0914B018CE491E0099510926C018B
:100FC00036C084E080935A02109249011092480181
:100FD000E0914601F0914701099580914801811106
:100FE00005C081E08093480110922601E0914901FB
:100FF00081E08E0F80934901F0E0EA5DFE4F808131
:101000008093BB009091490180914801981708F4A2
:1010100079CF85E88093BC000AC085EC8093BC0042
:1010200010925A0204C0109258020E949803FF9135
:10103000EF91BF91AF919F918F917F916F915F9150
:101040004F913F912F910F900FBE0F901F901895C9
:10105000EFE7F2E01382128288EE93E0A0E0B0E0C6
:1010600084839583A683B78324E031E03183208392
:1010700025EC30E03587248724EC30E0378726875D
:1010800020EC30E0318B208B21EC30E0338B228B55
:1010900022EC30E0358B248B26EC30E0378B268B2E
:1010A000118E128E138E148EECE1F3E013821282F5
:1010B00084839583A683B78384E191E091838083C1
:1010C00088E6809328030895CF93DF9300D0CDB7AF
:1010D000DEB7789484B5826084BD84B5816084BDB8
:1010E00085B5826085BD85B5816085BD80916E00C6
:1010F000816080936E0010928100809181008260F7
:101100008093810080918100816080938100809133
:1011100080008160809380008091B1008460809322
:10112000B1008091B00081608093B00080917A001E
:10113000846080937A0080917A00826080937A0044
:1011400080917A00816080937A0080917A00806833
:1011500080937A001092C100E0918F02F09190028A
:1011600082E08083E0918B02F0918C021082E0910A
:101170008D02F0918E0280E1808310929702E091BF
:101180009302F091940286E08083E0919102F091C5
:101190009202808180618083E0919102F0919202BD
:1011A000808188608083E0919102F0919202808139
:1011B00080688083E0919102F091920280818F7D1E
:1011C000808301E023E042E06BE6809128030E94E7
:1011D000050600E022E044E06BE1809128030E94D4
:1011E000050622E044E06CE1809128030E94050698
:1011F000F090280308EE13E09E012E5F3F4F41E080
:101200006BE68F2D0E94EF049A819F7B9A839983CE
:10121000AE014F5F5F4F6BE68F2D0E944D046FE66E
:10122000462E62E1562E63E8662E6AE3762E4092E1
:101230009C0150929D0160929E0170929F0176EAFE
:10124000872E7BE9972E74E4A72E7BE3B72E80923E
:10125000A0019092A101A092A201B092A301EFE897
:10126000CE2EE2ECDE2EE5EFEE2EECE3FE2EC0926B
:10127000A401D092A501E092A601F092A7011092DC
:10128000A8011092A9011092AA011092AB0110922C
:10129000AC011092AD011092AE011092AF0110920C
:1012A000B4011092B5011092B6011092B7011092DC
:1012B000B8011092B9011092BA011092BB011092BC
:1012C000BC011092BD011092BE011092BF0110929C
:1012D000C0011092C1011092C2011092C3010E947C
:1012E000B3010E94D90B6093D8017093D901809308
:1012F000DA019093DB014092E0015092E1016092AB
:10130000E2017092E3018092E4019092E501A092E3
:10131000E601B092E701C092E801D092E901E092C3
:10132000EA01F092EB011092EC011092ED011092A3
:10133000EE011092EF011092F0011092F101109263
:10134000F2011092F3011092F8011092F90110923B
:10135000FA011092FB011092FC011092FD01109213
:10136000FE011092FF0110920002109201021092F1
:1013700002021092030210920402109205021092CF
:101380000602109207020E94B3010E94D90B6093DB
:101390001C0270931D0280931E0290931F0208EEA0
:1013A00013E029E233E04EE06BE3809128030E94D2
:1013B000EF040091290310E0102F002780912A03E9
:1013C000082B109333020093320260912B0370E0DC
:1013D000762F662780912C03682B709331026093DF
:1013E000300280912D0390E0982F882720912E03C2
:1013F000822B90932F0280932E028091310390E0F4
:10140000982F882720913203822B90932D0280936E
:101410002C028091330390E0982F88272091340389
:10142000822B90932B0280932A028091350390E0C7
:10143000982F882720913603822B9093290280933E
:101440002802072E000C880B990B0E94DB0B6B0106
:101450007C0160932402709325028093260290936E
:101460002702B801110F880B990B0E94DB0B4B016F
:101470005C0160932002709321028093220290937A
:101480002302B701A60180EE91E00E94D8016B0112
:101490007C016093DC017093DD018093DE01909309
:1014A000DF01B501A4018CE991E00E94D8016093AD
:1014B00098017093990180939A0190939B01C701C1
:1014C000B6010E94A30BCB010E94E50480E291E0EB
:1014D0000E946B0480913002909131020E94E504D9
:1014E00080E291E00E946B046091980170919901F3
:1014F00080919A0190919B010E94A30BCB010E94C5
:10150000E50480E291E00E946B04609132027091E8
:101510003302072E000C880B990B97FF03C00E9423
:10152000BE0403C04AE00E947D0482E291E00E9472
:101530006B040E94A90133CFA1E21A2EAA1BBB1B88
:10154000FD010DC0AA1FBB1FEE1FFF1FA217B3078F
:10155000E407F50720F0A21BB30BE40BF50B661FA5
:10156000771F881F991F1A9469F760957095809569
:1015700090959B01AC01BD01CF010895EE0FFF1FB7
:101580000590F491E02D09945058BB27AA270E949A
:10159000DC0A0C942D0C0E941F0C38F00E94260CC3
:1015A00020F039F49F3F19F426F40C941C0C0EF42F
:1015B000E095E7FB0C94160CE92F0E943E0C58F3C3
:1015C000BA17620773078407950720F079F4A6F528
:1015D0000C94600C0EF4E0950B2EBA2FA02D0B018D
:1015E000B90190010C01CA01A0011124FF27591B68
:1015F00099F0593F50F4503E68F11A16F040A22F6E
:10160000232F342F4427585FF3CF469537952795DE
:10161000A795F0405395C9F77EF41F16BA0B620BDD
:10162000730B840BBAF09150A1F0FF0FBB1F661F24
:10163000771F881FC2F70EC0BA0F621F731F841F67
:1016400048F4879577956795B795F7959E3F08F08D
:10165000B0CF9395880F08F09927EE0F979587954F
:1016600008950E94450B0C942D0C0E94260C58F0F6
:101670000E941F0C40F029F45F3F29F00C94160CD7
:1016800051110C94610C0C941C0C0E943E0C68F3DC
:101690009923B1F3552391F3951B550BBB27AA272B
:1016A00062177307840738F09F5F5F4F220F331F65
:1016B000441FAA1FA9F335D00E2E3AF0E0E832D02D
:1016C00091505040E695001CCAF72BD0FE2F29D030
:1016D000660F771F881FBB1F261737074807AB0702
:1016E000B0E809F0BB0B802DBF01FF2793585F4F77
:1016F0003AF09E3F510578F00C94160C0C94610C56
:101700005F3FE4F3983ED4F3869577956795B79558
:10171000F7959F5FC9F7880F911D9695879597F963
:101720000895E1E0660F771F881FBB1F62177307DC
:101730008407BA0720F0621B730B840BBA0BEE1FF1
:1017400088F7E09508950E94AA0B6894B1110C9453
:10175000610C08950E94460C88F09F5798F0B92FAD
:101760009927B751B0F0E1F0660F771F881F991FD6
:101770001AF0BA95C9F714C0B13091F00E94600C0C
:10178000B1E008950C94600C672F782F8827B85F1C
:1017900039F0B93FCCF3869577956795B395D9F72E
:1017A0003EF490958095709561957F4F8F4F9F4F38
:1017B0000895E89409C097FB3EF490958095709544
:1017C00061957F4F8F4F9F4F9923A9F0F92F96E98D
:1017D000BB279395F695879577956795B795F11102
:1017E000F8CFFAF4BB0F11F460FF1BC06F5F7F4F9F
:1017F0008F4F9F4F16C0882311F096E911C07723B1
:1018000021F09EE8872F762F05C0662371F096E8B9
:10181000862F70E060E02AF09A95660F771F881F88
:10182000DAF7880F9695879597F9089597F99F6746
:1018300080E870E060E008959FEF80EC0895002458
:101840000A941616170618060906089500240A9425
:1018500012161306140605060895092E0394000CAB
:1018600011F4882352F0BB0F40F4BF2B11F460FF3A
:1018700004C06F5F7F4F8F4F9F4F089557FD905863
:10188000440F551F59F05F3F71F04795880F97FB44
:10189000991F61F09F3F79F08795089512161306FE
:1018A0001406551FF2CF4695F1DF08C0161617062D
:1018B0001806991FF1CF8695710561050894089562
:1018C000E894BB2766277727CB0197F908950E94F4
:1018D0007A0C0C942D0C0E941F0C38F00E94260CE0
:1018E00020F0952311F00C94160C0C941C0C112470
:1018F0000C94610C0E943E0C70F3959FC1F3950F00
:1019000050E0551F629FF001729FBB27F00DB11D83
:10191000639FAA27F00DB11DAA1F649F6627B00D13
:10192000A11D661F829F2227B00DA11D621F739FFC
:10193000B00DA11D621F839FA00D611D221F749F0A
:101940003327A00D611D231F849F600D211D822F51
:10195000762F6A2F11249F5750409AF0F1F0882378
:101960004AF0EE0FFF1FBB1F661F771F881F9150A5
:101970005040A9F79E3F510580F00C94160C0C9432
:10198000610C5F3FE4F3983ED4F3869577956795B5
:10199000B795F795E7959F5FC1F7FE2B880F911DCF
:1019A0009695879597F9089581E090E0F8940C94C6
:0619B000D90CF894FFCFF2
:1019B600000000004001BC000901E700FB008701B0
:1019C600000000001E04EE039003DA03CB03CA03F3
:0619D60009000D0A0000EB
:107800000C94343C0C94513C0C94513C0C94513CE1
:107810000C94513C0C94513C0C94513C0C94513CB4
:107820000C94513C0C94513C0C94513C0C94513CA4
:107830000C94513C0C94513C0C94513C0C94513C94
:107840000C94513C0C94513C0C94513C0C94513C84
:107850000C94513C0C94513C0C94513C0C94513C74
:107860000C94513C0C94513C11241FBECFEFD8E036
:10787000DEBFCDBF11E0A0E0B1E0ECE9FFE702C060
:1078800005900D92A230B107D9F712E0A2E0B1E065
:1078900001C01D92AD30B107E1F70E942D3D0C945F
:1078A000CC3F0C94003C982F959595959595959582
:1078B000905D8F708A307CF0282F295A8091C0000B
:1078C00085FFFCCF9093C6008091C00085FFFCCF60
:1078D0002093C6000895282F205DF0CF982F809127
:1078E000C00085FFFCCF9093C6000895EF92FF92F1
:1078F0000F931F93EE24FF2487018091C00087FD22
:1079000017C00894E11CF11C011D111D81E4E8164B
:1079100082E4F8068FE0080780E0180770F3E09132
:107920000401F091050109958091C00087FFE9CF1E
:107930008091C6001F910F91FF90EF9008950E94D3
:10794000763C982F8091C00085FFFCCF9093C600B5
:1079500091362CF490330CF09053892F089597555D
:10796000892F08951F930E949F3C182F0E949F3CCF
:107970001295107F810F1F9108951F93182F882350
:1079800021F00E94763C1150E1F71F9108951F935A
:10799000182F0E94763C803249F0809103018F5F5E
:1079A000809303018530C1F01F9108958091C0003C
:1079B00085FFFCCF84E18093C6008091C00085FFE5
:1079C000FCCF1093C6008091C00085FFFCCF80E102
:1079D0008093C6001F910895E0910401F091050184
:1079E00009951F9108950E94763C803241F0809164
:1079F00003018F5F80930301853081F008958091AA
:107A0000C00085FFFCCF84E18093C6008091C00058
:107A100085FFFCCF80E18093C6000895E0910401CA
:107A2000F09105010995089540E951E08823A1F0FE
:107A30002D9A28EE33E0FA013197F1F721503040CA
:107A4000D1F72D9828EE33E0FA013197F1F7215064
:107A50003040D1F7815061F708953F924F925F9285
:107A60006F927F928F929F92AF92BF92CF92DF924E
:107A7000EF92FF920F931F93CF93DF93000080E16B
:107A80008093C4001092C50088E18093C10086E015
:107A90008093C2005098589A259A81E00E94143D24
:107AA00024E1F22E9EE1E92E85E9D82E0FE0C02ECA
:107AB00010E1B12EAA24A394B1E49B2EA6E58A2E50
:107AC000F2E57F2EE0E26E2E79E4572E63E5462E36
:107AD00050E5352E0E94763C8033B1F18133B9F107
:107AE000803409F46FC0813409F476C0823409F41B
:107AF00085C0853409F488C0803531F1823521F1A3
:107B0000813511F1853509F485C0863509F48DC0BC
:107B1000843609F496C0843709F403C1853709F423
:107B200072C1863709F466C0809103018F5F80932C
:107B30000301853079F6E0910401F0910501099582
:107B40000E94763C803351F60E94F33CC3CF0E94E2
:107B5000763C803249F78091C00085FFFCCFF092DF
:107B6000C6008091C00085FFFCCF9092C600809136
:107B7000C00085FFFCCF8092C6008091C00085FFC9
:107B8000FCCF7092C6008091C00085FFFCCF609250
:107B9000C6008091C00085FFFCCF5092C600809146
:107BA000C00085FFFCCF4092C6008091C00085FFD9
:107BB000FCCF3092C6008091C00085FFFCCFB09210
:107BC000C60088CF0E94763C863808F4BDCF0E945C
:107BD000763C0E94F33C7ECF0E94763C803809F4CC
:107BE0009CC0813809F40BC1823809F43CC1883942
:107BF00009F48FC080E00E94C73C6CCF84E10E94F2
:107C0000BD3C0E94F33C66CF85E00E94BD3C0E94D3
:107C1000F33C60CF0E94763C809306010E94763C44
:107C2000809307010E94F33C55CF0E94763C80333D
:107C300009F41DC183E00E94BD3C80E00E94C73C66
:107C400049CF0E94763C809309020E94763C809343
:107C5000080280910C028E7F80930C020E94763C79
:107C6000853409F415C18091080290910902892B8D
:107C700089F000E010E00E94763CF801E85FFE4FDA
:107C800080830F5F1F4F80910802909109020817AF
:107C9000190788F30E94763C803209F045CF809125
:107CA0000C0280FF01C16091060170910701660F0F
:107CB000771F7093070160930601A0910802B091AD
:107CC00009021097C9F0E8E0F1E09B01AD014E0F09
:107CD0005F1FF999FECF32BD21BD819180BDFA9A17
:107CE000F99A2F5F3F4FE417F50799F76A0F7B1F4B
:107CF00070930701609306018091C00085FFFCCF5F
:107D0000F092C6008091C00085FFFCCFB092C60003
:107D1000E1CE83E00E94C73CDDCE82E00E94C73CFA
:107D2000D9CE0E94763C809309020E94763C8093D3
:107D300008028091060190910701880F991F909386
:107D40000701809306010E94763C853409F4A6C0A1
:107D500080910C028E7F80930C020E94763C8032D0
:107D600009F0B8CE8091C00085FFFCCFF092C6002C
:107D7000609108027091090261157105B9F140E046
:107D800050E080910C02A82FA170B82FB27011C0E2
:107D9000BB2309F45CC0E0910601F0910701319624
:107DA000F0930701E09306014F5F5F4F46175707B7
:107DB000E8F4AA2369F3F999FECF209106013091E6
:107DC000070132BD21BDF89A90B58091C00085FFB2
:107DD000FCCF9093C6002F5F3F4F30930701209355
:107DE00006014F5F5F4F4617570718F38091C00099
:107DF00085FDE5CE8091C00085FFF8CFE0CE81E023
:107E00000E94C73C67CE0E94763C803209F08CCE3F
:107E10008091C00085FFFCCFF092C6008091C00029
:107E200085FFFCCFE092C6008091C00085FFFCCFAB
:107E3000D092C6008091C00085FFFCCFC092C600E2
:107E40008091C00085FFFCCFB092C60043CEE09188
:107E50000601F091070194918091C00085FFFCCF4D
:107E60009093C6009CCF80E10E94C73C33CE0E9415
:107E7000763C0E94763C182F0E94763C112309F430
:107E800083C0113009F484C08FE00E94C73C22CE29
:107E900080910C02816080930C02E5CE80910C02EF
:107EA000816080930C0259CF809107018823880F4D
:107EB000880B8A2180930B02809106019091070123
:107EC000880F991F90930701809306018091080203
:107ED00080FF09C080910802909109020196909359
:107EE000090280930802F894F999FECF1127E091D6
:107EF0000601F0910701C8E0D1E08091080290915D
:107F00000902103091F40091570001700130D9F34B
:107F100003E000935700E89500915700017001308D
:107F2000D9F301E100935700E89509901990009169
:107F3000570001700130D9F301E000935700E89534
:107F40001395103498F011270091570001700130FB
:107F5000D9F305E000935700E895009157000170B0
:107F60000130D9F301E100935700E895329602976A
:107F700009F0C7CF103011F00296E5CF112480919F
:107F8000C00085FFB9CEBCCE8EE10E94C73CA2CD19
:0C7F900085E90E94C73C9ECDF894FFCF0D
:027F9C00800063
:040000030000780081
:00000001FF