:100000000C9499000C94C1000C94C1000C94C10094
:100010000C94C1000C94C1000C94C1000C94C1005C
:100020000C94C1000C94C1000C94C1000C94C1004C
:100030000C94C1000C94C1000C94C1000C94C1003C
:100040000C94DC070C94C1000C94AA070C94840750
:100050000C94C1000C94C1000C94C1000C94C1001C
:100060000C9426080C94C10007634236B79BD8A7AE
:100070001A39685618AEBAAB558C1D3CB7CC5763CD
:10008000BD6DEDFD753EF6177231BF000000803F7B
:1000900008000000BE922449123EABAAAA2ABECD97
:1000A000CCCC4C3E00000080BEABAAAAAA3E000009
:1000B0000000BF000000803F000000000008417801
:1000C000D3BB4387D1133D190E3CC3BD4282AD2B38
:1000D0003E68EC8276BED98FE1A93E4C80EFFFBE30
:1000E00001C4FF7F3F000000000000000000250069
:1000F00028002B0004040404040404040202020285
:1001000002020303030303030102040810204080DA
:100110000102040810200102040810200000000859
:1001200000020100000304070000000000000000BE
:10013000540911241FBECFEFD8E0DEBFCDBF11E0C0
:10014000A0E0B1E0E6ECF3E202C005900D92AE341F
:10015000B107D9F723E0AEE4B1E001C01D92AA31A6
:10016000B207E1F710E0C9E9D0E004C02197FE0131
:100170000E94390EC839D107C9F70E948D090C9425
:10018000E1110C9400002091700290916F022132D5
:1001900008F04AC080914C028111FCCF32E03093CC
:1001A0004C0231E030934B023FEF30934A02109201
:1001B000490220934802AFE4B2E048E252E0FA017B
:1001C0003E2F341B321718F43D913193F9CF109222
:1001D000270220912702990F922B9093270290914A
:1001E0002602913061F4109226029091270290939A
:1001F000BB009091BC0093FDF8CF95EC01C095EE4B
:100200009093BC0090914C029230E1F390914A029D
:100210009F3F79F080914A02803241F080914A02FA
:10022000803331F084E005C081E003C082E001C08A
:1002300083E010924E021092700210924D020895C7
:100240008091040290E020910502821B910908959B
:1002500090E0FC01E45EFE4F2491FC01E85FFE4F5C
:100260003491FC01EC50FF4FE491EE23B1F12223D5
:1002700039F1233091F038F42130A9F0223001F522
:1002800084B58F7D12C0273091F02830A1F0243042
:10029000B9F4809180008F7D03C0809180008F77BA
:1002A000809380000DC084B58F7784BD09C0809194
:1002B000B0008F7703C08091B0008F7D8093B00035
:1002C000F0E0EE0FFF1FE651FF4FA591B4918FB7FD
:1002D000F894EC913E2B3C938FBF0895CF92DF9220
:1002E000EF92FF920F931F93CF93DF936C017A01EC
:1002F0008B01C0E0D0E0CE15DF0589F0D8016D910B
:100300008D01D601ED91FC910190F081E02DC601A7
:100310000995892B11F47E0102C02196ECCFC7010B
:10032000DF91CF911F910F91FF90EF90DF90CF90D1
:100330000895FC01918D828D981761F0828DDF0107
:10034000A80FB11D5D968C91928D9F5F9F73928FC8
:1003500090E008958FEF9FEF0895FC01918D828DBD
:10036000981731F0828DE80FF11D858D90E008958A
:100370008FEF9FEF0895FC01918D228D892F90E0E2
:10038000805C9F4F821B91098F739927089581E7A5
:1003900092E00E94BB0121E0892B09F420E0822F2A
:1003A0000895FC01848DDF01A80FB11DA35ABF4F32
:1003B0002C91848D90E001968F739927848FA68964
:1003C000B7892C93A089B1898C9180648C93938D8B
:1003D000848D981306C00288F389E02D80818F7D7B
:1003E00080830895EF92FF920F931F93CF93DF9333
:1003F000EC0181E0888F9B8D8C8D981305C0E88976
:10040000F989808185FD24C0F62E0B8D10E00F5FE9
:100410001F4F0F731127E02E8C8DE8120CC00FB602
:1004200007FCFACFE889F989808185FFF5CFCE01F5
:100430000E94D101F1CF8B8DFE01E80FF11DE35A2F
:10044000FF4FF0820B8FEA89FB898081806207C0B1
:10045000EE89FF896083E889F989808180648083DF
:1004600081E090E0DF91CF911F910F91FF90EF908D
:100470000895CF93DF93EC01888D8823C9F0EA8932
:10048000FB89808185FD05C0A889B9898C9186FD8D
:100490000FC00FB607FCF5CF808185FFF2CFA8898A
:1004A000B9898C9185FFEDCFCE010E94D101E7CFB4
:1004B000DF91CF91089580E090E0892B29F00E9490
:1004C000C70181110C94000008953FB7F894809102
:1004D0009A0190919B01A0919C01B0919D0126B53C
:1004E000A89B05C02F3F19F00196A11DB11D3FBF6C
:1004F000BA2FA92F982F8827820F911DA11DB11DFA
:10050000BC01CD0142E0660F771F881F991F4A95F5
:10051000D1F708958F929F92AF92BF92CF92DF92C0
:10052000EF92FF926B017C010E9465024B015C011E
:10053000C114D104E104F104F1F00E946502DC0170
:10054000CB0188199909AA09BB09883E9340A105E6
:10055000B10570F321E0C21AD108E108F10888EE74
:10056000880E83E0981EA11CB11CC114D104E104C3
:10057000F10419F7DDCFFF90EF90DF90CF90BF909F
:10058000AF909F908F90089585ED8093BC008091EF
:10059000BC0084FDFCCF10924C0208954091700184
:1005A000262F30E0240F311D21323105DCF420915B
:1005B0004C022430C9F4FC0180E090E0861758F426
:1005C000309170012191DC01A25BBE4FA30FB11DE0
:1005D0002C930196F3CF80917001680F60937001A6
:1005E00080E0089581E0089582E008950895E09103
:1005F000050280910402E81730F4F0E0EA5FFD4F55
:10060000808190E008958FEF9FEF0895909105020B
:1006100080910402981750F4E92FF0E0EA5FFD4F53
:10062000208130E09F5F9093050202C02FEF3FEFE3
:10063000C9010895CF92DF92EF92FF920F931F931B
:10064000CF93DF937C01262F972F8A0180914D0253
:10065000882391F0C62FD72F6E01C40ED51ECC155E
:10066000DD0571F06991D701ED91FC910190F08168
:10067000E02DC7010995F3CF642F822F0E94CE028F
:10068000C801DF91CF911F910F91FF90EF90DF9004
:10069000CF900895CF93DF931F92CDB7DEB76983D4
:1006A00020914D022223D1F020917002203240F09F
:1006B00021E030E0FC013383228380E090E015C02C
:1006C00080914E02E82FF0E0E15BFD4F998190832D
:1006D0008F5F80934E028093700205C061E0CE016F
:1006E00001960E94CE0281E090E00F90DF91CF91C1
:1006F0000895009769F0FC0101900020E9F7319717
:10070000AF01481B590BBC0181E792E00C946E01CC
:1007100080E090E008958F929F92AF92BF920F93E6
:100720001F93CF93DF93CDB7DEB7A1970FB6F894A1
:10073000DEBF0FBECDBF19A2423008F44AE08E01E1
:100740000F5D1F4F842E912CA12CB12CA50194017B
:100750000E94180DE62FB901CA0101501109EA30B3
:1007600014F4E05D01C0E95CD801EC93232B242B49
:10077000252B61F7C8010E947903A1960FB6F89462
:10078000DEBF0FBECDBFDF91CF911F910F91BF9004
:10079000AF909F908F90089590914C029111FCCF53
:1007A000813208F080E291E090934C0290934B02EA
:1007B0002FEF20934A0210924902280F20934802FB
:1007C00090932702909127029E6E9093270290911A
:1007D0002602913061F410922602909127029093A4
:1007E000BB009091BC0093FDF8CF95EC01C095EE55
:1007F0009093BC0090914C029130E1F390914902AA
:10080000981710F480914902A8E2B2E026E032E0A5
:10081000F9019E2F921B981718F49D919193F9CF8F
:10082000109205028093040208951F93CF93DF93E3
:10083000C1E0C0934D0287E780936F0210924E0291
:100840001092700260E08EE093E00E944A030E94E2
:10085000C300C0934D0210924E021092700283E0CA
:1008600090E00E94CC0390910402809105029817B9
:10087000F1F38EE093E00E940603D82F8EE093E020
:100880000E940603182F8EE093E00E940603C82FF3
:100890000E94C300812F90E0A0E0B0E0BA2FA92F02
:1008A000982F8827AD2BBC01CD016C2BDF91CF9108
:1008B0001F9108952F923F924F925F926F927F9275
:1008C0008F929F92AF92BF92CF92DF92EF92FF9260
:1008D0000F931F93CF93DF93CDB7DEB7AA970FB6D1
:1008E000F894DEBF0FBECDBF898301E000934D02B7
:1008F00017E710936F0210924E02109270026091EF
:10090000EF0170E0605C7F4F8EE093E00E944A034D
:100910000E94C3006091EE0170E080E090E00E94D0
:100920008A020E9415046F8F78A389A39AA300936B
:100930004D0210936F0210924E021092700260915D
:10094000EF0170E0605B7F4F8EE093E00E944A030E
:100950000E94C3006091EE0170E080E090E00E9490
:100960008A020E9415042091EA013091EB0189016D
:1009700020E030E0322F212F102F00272B013C01E7
:10098000401A510A620A730AE091E801F091E90104
:100990008090E4019090E501940140E050E060E037
:1009A00070E080E090E000E10E94D80DF22E132F5D
:1009B0001A014B0189879D839F0140E050E0C301EC
:1009C000B2010E949E0DD22EE32E042FB52FF62FDA
:1009D000E72F5C01A0E00E942D0E54F4AFE70E94C7
:1009E000180ED22EE32E042FB52FF62FE72F5C0121
:1009F0002D2D3E2D402F5B2F6F2F7E2FC50107E041
:100A00000E94F10D59016A01E62EF72F082FE92FF8
:100A10002F2D312FA101B40189859D81FF2E1E2F1D
:100A20000E940F0E298B3A8B4B8B5C8B6D8B7E8BD0
:100A30008F8B988F6091E2017091E301C090E60185
:100A4000D090E70180E090E020E030E840E050E026
:100A50000E94AD0DB22EE32EF42E152F1B014C017A
:100A6000960140E050E0C301B2010E949E0D022FAA
:100A70003D83C42EB52FF62FE72FD82EA92EA0E048
:100A80000E942D0E84F421503F4F4F4F5F4F6F4F08
:100A90007F4F8F4F9F4F022F3D83C42EB52FF62FD0
:100AA000E72FD82EA92E202F3D814C2D5B2F6F2FA5
:100AB0007E2F8D2D9A2D08E00E94F10DA22EB32FCE
:100AC0006A01A62FF72F082FE92F2B2D3E2D4F2D32
:100AD000512FB101C401BB2EEA2EFF2E1E2F0E9402
:100AE0000F0E322E232E498F5A8F6B8F7C8F8D8F56
:100AF0009E8F2981222309F473C12091EC0130914A
:100B0000ED0140E050E0C301B2010E949E0DF22EC3
:100B1000032F142FB52FF62FE72FD82EE92EA0E0A4
:100B20000E942D0E84F42150310940485F4F6F4FD1
:100B30007F4F8F4F9F4FF22E032F142FB52FF62F7D
:100B4000E72FD82EE92E2F2D302F412F5B2F6F2F1F
:100B50007E2F8D2D9E2D07E10E94F10D49015A0136
:100B60002401350130ED430E37E0531E611C711C2A
:100B70001092F4011092F5011092F6011092F70113
:100B80001092F8011092F9011092FA011092FB01F3
:100B90001092FC011092FD011092FE011092FF01D3
:100BA00010920002109201021092020210920302AF
:100BB00040ED441647E05406610471040CF0CCC0CB
:100BC000A5019401C501B4010E94080D9B01AC016F
:100BD000A5E0B0E00E943A0D9B01AC015595479508
:100BE000379527952D833E834F8358879B01AC0112
:100BF000550F220B322FA90129833A834B835C8343
:100C00003D813093F4014E814093F5015F81509313
:100C1000F601A885A093F7012093F801B981B0935C
:100C2000F901EB2FB093FA01B093FB019B01AC01EA
:100C3000A2E05595479537952795AA95D1F729872D
:100C40003A874B875C872093FC013093FD014093EA
:100C5000FE015093FF01B0930002B0930102B093E4
:100C60000202B093030274E247167AEF57067FEF51
:100C7000670677060CF070C0C501B4016455724F69
:100C80008F4F9F4F9B01AC010E94080D2B013C012F
:100C9000A7E0B0E09B01AC010E943A0D7B018C0102
:100CA000DC01CB01BB0F880B982FDC018D879E8761
:100CB000AF87B88B2D813E814F8158856E2F7E2F57
:100CC000862F9E2F57016801ED84FE2C0E2D1E2DC0
:100CD0000E940F0E2093F4013093F5014093F6012A
:100CE0005093F7016093F8017093F9018093FA0132
:100CF0009093FB01ABE0B0E0A30192010E943A0D9A
:100D00007B018C0115950795F794E7942B013C0125
:100D1000770C4408542C320129853A854B855C8533
:100D20006E2F7E2F862F9E2F57016801E42CF42C06
:100D3000042D142D0E940F0E2093FC013093FD0111
:100D40004093FE015093FF016093000270930102F3
:100D5000809302029093030229893A894B895C8926
:100D60006D897E898F89988DA090F401B090F501EE
:100D7000C090F601D090F701E090F801F090F901F1
:100D80000091FA011091FB010E94240E298B3A8BED
:100D90004B8B5C8B6D8B7E8B8F8B988F232D322DA5
:100DA000498D5A8D6B8D7C8D8D8D9E8DA090FC0113
:100DB000B090FD01C090FE01D090FF01E0900002D4
:100DC000F090010200910202109103020E94240E91
:100DD000322E232E498F5A8F6B8F7C8F8D8F9E8F53
:100DE0004F8D58A169A17AA19A01AB0160E070E032
:100DF000CB012BA33CA34DA35EA36FA378A789A728
:100E00009AA7A32CB22CC98CDA8CEB8CFC8C0D8DA0
:100E10001E8D60E070E080E090E00E94450D122F92
:100E2000D32EE42EB52FF62FE72FF82E092FA0E0B2
:100E30000E942D0E84F421503109404E5F4F6F4FB8
:100E40007F4F8F4F9F4F122FD32EE42EB52FF62FAB
:100E5000E72FF82E092F212F3D2D4E2D5B2F6F2FC1
:100E60007E2F8F2D902F05E10E94F10DA988BA8861
:100E7000CB88DC88ED88FE880F89188D0E94240EAF
:100E8000122FD32EE42EB52FF62FE72FF82E092F91
:100E9000A0E00E942D0E84F4215030484F4F5F4F48
:100EA0006F4F7F4F8F4F9F4F122FD32EE42EB52FB2
:100EB000F62FE72FF82E092F212F3D2D4E2D5B2FDA
:100EC0006F2F7E2F8F2D902F0FE00E94F10DB90113
:100ED000CA01AA960FB6F894DEBF0FBECDBFDF9150
:100EE000CF911F910F91FF90EF90DF90CF90BF9027
:100EF000AF909F908F907F906F905F904F903F90BA
:100F00002F9008950E94DC111F920F920FB60F923E
:100F100011242F933F934F935F936F937F938F93FE
:100F20009F93AF93BF93EF93FF9381E792E00E946B
:100F3000D101FF91EF91BF91AF919F918F917F91DF
:100F40006F915F914F913F912F910F900FBE0F9036
:100F50001F9018951F920F920FB60F9211242F9386
:100F60008F939F93EF93FF93E0918102F091820220
:100F70008081E0918702F091880282FD12C0908109
:100F800080918A028F5F8F7320918B02821751F0BC
:100F9000E0918A02F0E0EF58FD4F958F80938A022E
:100FA00001C08081FF91EF919F918F912F910F90C0
:100FB0000FBE0F901F9018951F920F920FB60F92B1
:100FC00011242F933F938F939F93AF93BF9380915F
:100FD000960190919701A0919801B091990130915B
:100FE000950123E0230F2D3720F40196A11DB11D9B
:100FF00005C026E8230F0296A11DB11D209395017F
:101000008093960190939701A0939801B0939901D2
:1010100080919A0190919B01A0919C01B0919D01BA
:101020000196A11DB11D80939A0190939B01A093FD
:101030009C01B0939D01BF91AF919F918F913F9182
:101040002F910F900FBE0F901F9018951F920F9227
:101050000FB60F9211242F933F934F935F936F938B
:101060007F938F939F93AF93BF93EF93FF93809161
:10107000B900887F803609F49CC068F5883209F48D
:101080005BC090F4803109F454C038F4882309F42B
:10109000F6C0883009F44DC0F6C0883109F44CC060
:1010A000803209F45DC0EFC0803409F468C048F4B0
:1010B000803309F455C0883309F0E5C080934A02B3
:1010C000D8C0803509F44FC0883509F45DC0883434
:1010D00009F0D9C0D6C0883909F4C7C0A8F4883748
:1010E00009F467C038F4883609F463C0803709F41E
:1010F00060C0C9C0883809F4B8C0803909F45FC03D
:10110000803809F0C0C05BC0803B09F486C038F469
:10111000803A09F466C0883A09F47FC0B4C0803CC4
:1011200009F4A7C0883C09F4A4C0883B09F48AC02C
:10113000AAC08091270210C0909149028091480274
:10114000981770F5E091490281E08E0F8093490273
:10115000F0E0E85DFD4F80818093BB0085EC86C0A8
:1011600080934A028EC0E091490281E08E0F809305
:1011700049028091BB00F0E0E85DFD4F80839091D3
:101180004902809148026EC0E091490281E08E0FD1
:10119000809349028091BB00F0E0E85DFD4F8083C1
:1011A00080914B0281116DC081E08093260284EA18
:1011B00061C083E080934C0210929401CFCF809164
:1011C0009401803208F051C0E091940181E08E0FCB
:1011D000809394018091BB00F0E0EC58FE4F808337
:1011E000BDCF85EC8093BC0010924C02809194019D
:1011F000803230F4E0919401F0E0EC58FE4F108220
:101200006091940170E0E0917201F091730184E7C4
:1012100091E009951092940136C084E080934C02CD
:101220001092710110927001E0916E01F0916F01C6
:10123000099580917001811105C081E08093700152
:1012400010924E01E091710181E08E0F8093710147
:10125000F0E0E25BFE4F80818093BB0090917101D2
:1012600080917001981708F479CF85E88093BC00CD
:101270000AC085EC8093BC0010924C0204C010920E
:101280004A020E94C402FF91EF91BF91AF919F91DA
:101290008F917F916F915F914F913F912F910F901F
:1012A0000FBE0F901F901895E1E7F2E013821282B3
:1012B00088EE93E0A0E0B0E084839583A683B783B3
:1012C00024E031E03183208325EC30E0358724872A
:1012D00024EC30E03787268720EC30E0318B208B00
:1012E00021EC30E0338B228B22EC30E0358B248BE9
:1012F00026EC30E0378B268B118E128E138E148ED7
:10130000EEE0F3E01382128284839583A683B78391
:1013100084E191E0918380830895CF93DF93CDB7EB
:10132000DEB76C970FB6F894DEBF0FBECDBF7894D2
:1013300084B5826084BD84B5816084BD85B58260DA
:1013400085BD85B5816085BD80916E00816080938B
:101350006E001092810080918100826080938100F4
:101360008091810081608093810080918000816004
:10137000809380008091B10084608093B10080915F
:10138000B00081608093B00080917A008460809387
:101390007A0080917A00826080937A0080917A004E
:1013A000816080937A0080917A00806880937A00CF
:1013B0001092C100E0918102F091820282E080836C
:1013C000E0917D02F0917E021082E0917F02F09127
:1013D000800280E1808310928902E0918502F09181
:1013E000860216E01083E0918302F09184028081EE
:1013F00080618083E0918302F09184028081886023
:101400008083E0918302F0918402808180688083F0
:10141000E0918302F091840280818F7D80838FE64A
:1014200092E1A3E8BAE38093A2019093A301A09371
:10143000A401B093A50186EA9BE9A4E4BBE38093F1
:10144000A6019093A701A093A801B093A9018FE8EA
:1014500092ECA5EFBCE38093AA019093AB01A0931B
:10146000AC01B093AD011092AE011092AF01109299
:10147000B0011092B1011092B2011092B30110921A
:10148000B4011092B5011092BA011092BB011092F2
:10149000BC011092BD011092BE011092BF011092CA
:1014A000C0011092C1011092C2011092C3011092AA
:1014B000C4011092C5011092C6011092C70110928A
:1014C000C8011092C9010E9465020E945C0F6093DE
:1014D000DE017093DF018093E0019093E10180E2EF
:1014E00091E00E9479038CE391E00E9479031092CD
:1014F00005021092040210924E0210927002109295
:101500004C0201E000934B021092260282E10E94FD
:10151000280183E10E9428018091B9008E7F809389
:10152000B9008091B9008D7F8093B90088E48093E1
:10153000B80085E48093BC0000934D0287E7809358
:101540006F0210924E02109270026EE18EE093E0F4
:101550000E944A030E94C30085E08093EE0110932D
:10156000EF0164E670E080E090E00E948A0202EE03
:1015700011E082EAA82E9924939497E7B92E9092CD
:101580004D02B0926F0210924E02109270026A2DBC
:101590008EE093E00E944A030E94C30090924D02A5
:1015A00010924E021092700282E090E00E94CC03F2
:1015B00090910402809105029817F1F38EE093E078
:1015C0000E940603C82E8EE093E00E940603D82EE8
:1015D0000E94C300FC2CE12CC7018D29D8018D93FA
:1015E0009D938D01A394A394BEEAAB12C8CF6CE285
:1015F00071E080E090E00E948A0280E00E945A043C
:101600000E945E0F60939E0170939F018093A001E2
:101610009093A1018FE391E00E9479036091EF0123
:1016200070E080E090E04AE00E948B038CE391E060
:101630000E94790381E00E945A040E945E0F20E814
:1016400036EE45EC57E40E94BB0E2BEA3CED42E43B
:101650005EE30E9457106D8B7E8B8F8B988F0E945C
:1016600065020E945C0F2091DE013091DF01409104
:10167000E0015091E1010E944E0E20E034E244E787
:1016800059E40E94BB0E6B017C016093DA017093F8
:10169000DB018093DC019093DD018091B201909198
:1016A000B301A091B401B091B50189879A87AB8746
:1016B000BC879C01AD0160E070E0CB010E944E0E42
:1016C0009B01AC016093B6017093B7018093B801A0
:1016D0009093B901C701B6010E94EA0F2091AE01B3
:1016E0003091AF014091B0015091B1010E944F0E75
:1016F0006D877E878F87988B4090C6015090C70179
:101700006090C8017090C9018091BE019091BF01A5
:10171000A091C001B091C10189839A83AB83BC833E
:101720009C01AD01C301B2010E944F0E9B01AC01AF
:10173000C701B6010E94EA0F4B015C012091A20192
:101740003091A3014091A4015091A501C701B601B8
:101750000E94EA0F9B01AC01C501B4010E944F0E2B
:101760002091BA013091BB014091BC015091BD0163
:101770000E944F0E6D837E838F839887A301920111
:10178000C701B6010E94EA0F4B015C019B01AC014D
:1017900069817A818B819C810E944E0E69837A8354
:1017A0008B839C83A50194016091C2017091C30158
:1017B0008091C4019091C5010E944E0E698B7A8B75
:1017C0008B8B9C8B2091A6013091A7014091A801A1
:1017D0005091A901C701B6010E94EA0F9B01AC011B
:1017E000C301B2010E944F0E698F7A8F8B8F9C8F3D
:1017F0002091AA013091AB014091AC015091AD0113
:101800006D817E818F8198850E944F0E6B017C01D6
:101810006093D2017093D3018093D4019093D5014A
:101820009B01AC016D817E818F8198850E94BB0EEA
:101830004B015C016093CA017093CB018093CC0192
:101840009093CD01A701960169897A898B899C893A
:101850000E94BB0E6B017C016093CE017093CF019F
:101860008093D0019093D1012D893E894F89588D65
:1018700060E070E080E89FE30E944E0E20E03AE2D4
:101880004DE257E40E94EA0F2D853E854F85588929
:101890000E944E0E2B013C016093D6017093D7013C
:1018A0008093D8019093D9019B01AC01C501B4018B
:1018B0000E94EA0F9B01AC016D857E858F8598891A
:1018C0000E944F0E6093AE017093AF018093B00100
:1018D0009093B101A3019201C701B6010E94EA0FE2
:1018E0009B01AC0169857A858B859C850E944F0E92
:1018F0006093B2017093B3018093B4019093B501EA
:101900002D813E814F815885C501B4010E94EA0FA7
:101910009B01AC016D817E818F8198850E944E0E66
:101920002B013C016093BA017093BB018093BC0111
:101930009093BD0129813A814B815C81C501B4013D
:101940000E94EA0F9B01AC0169817A818B819C81A5
:101950000E944E0E4B015C016093BE017093BF016B
:101960008093C0019093C101A3019201C701B60108
:101970000E94EA0F9B01AC0169897A898B899C8955
:101980000E944E0E6093C2017093C3018093C40104
:101990009093C501A5019401C701B6010E94EA0F09
:1019A0009B01AC01698D7A8D8B8D9C8D0E944E0EB2
:1019B0006093C6017093C7018093C8019093C901D9
:1019C0000E9465020E945C0F6093DE017093DF014C
:1019D0008093E0019093E10120E030E048EC52E494
:1019E0006091AE017091AF018091B0019091B10111
:1019F0000E94EA0F0E942D0F80E090E04AE00E94D2
:101A00008B038CE391E00E9479030E945B0212CE6B
:101A1000DB018F939F930E943A0DBF91AF91A29FDC
:101A2000800D911DA39F900DB29F900D11240895DC
:101A3000A1E21A2EAA1BBB1BFD010DC0AA1FBB1FD2
:101A4000EE1FFF1FA217B307E407F50720F0A21B44
:101A5000B30BE40BF50B661F771F881F991F1A94B1
:101A600069F760957095809590959B01AC01BD01DB
:101A7000CF0108950E943F0EA59F900DB49F900D39
:101A8000A49F800D911D11240895DF93CF931F9380
:101A90000F939A9DF02D219FF00D8B9DF00D8A9D47
:101AA000E02DF10D039FF00D029FE00DF11D4E9D05
:101AB000E00DF11D5E9DF00D4F9DF00D7F936F9336
:101AC000BF92AF925F934F93D5010E943F0E8B015F
:101AD000AC01D7010E943F0EEB01E80FF91FD601C0
:101AE0000E94950D2F913F91D6010E943F0EC60F87
:101AF000D71FE81FF91FAF91BF910E94950D2F913D
:101B00003F910E943F0EC60FD71FE81FF91FD60155
:101B10000E943F0EE60FF71F9801BE01CF0111246E
:101B20000F911F91CF91DF9108950E943F0E460FB4
:101B3000571FC81FD91F08F43196089597FB57FF08
:101B40000C94AE0D9F938F930E94AE0D6E1B7F0B76
:101B5000AF91BF918A0B9B0B0895E894DF93CF93CD
:101B6000FC01DB010E943F0E7F936F93E9019A0114
:101B7000AC01BF93AF933F932F93DF010E943F0EC1
:101B800026F46C1B7D0B820B930B9E01EB01FC0179
:101B90000E94950DAF91BF912F913F910E94950D9D
:101BA000BE01CF01F9012F913F91CF91DF910895AF
:101BB0000F93083090F0982F872F762F652F542F92
:101BC000432F322F22270850F4CF220F331F441FF8
:101BD000551F661F771F881F991F0A95B2F70F912F
:101BE000089597FB10F8169400080F93083098F0AA
:101BF0000850232F342F452F562F672F782F892FEA
:101C0000902DF4CF0594979587957795679557957F
:101C10004795379527950A95AAF70F9108952A0DAC
:101C20003B1D4C1D5D1D6E1D7F1D801F911F089566
:101C30000024A7FD00942A0F301D401D501D601D7B
:101C4000701D801D901D08952A193B094C095D09DE
:101C50006E097F09800B910B08950024A7FD009465
:101C60002A17300540055005600570058005900570
:101C70000895EE0FFF1F0590F491E02D0994A29FA7
:101C8000B001B39FC001A39F700D811D1124911D50
:101C9000B29F700D811D1124911D08955058BB27CE
:101CA000AA270E94660E0C94B00F0E94A20F38F073
:101CB0000E94A90F20F039F49F3F19F426F40C94E8
:101CC0009F0F0EF4E095E7FB0C94990FE92F0E940B
:101CD000C10F58F3BA17620773078407950720F0FE
:101CE00079F4A6F50C94E30F0EF4E0950B2EBA2FC1
:101CF000A02D0B01B90190010C01CA01A001112412
:101D0000FF27591B99F0593F50F4503E68F11A16BD
:101D1000F040A22F232F342F4427585FF3CF46954E
:101D200037952795A795F0405395C9F77EF41F1670
:101D3000BA0B620B730B840BBAF09150A1F0FF0F3A
:101D4000BB1F661F771F881FC2F70EC0BA0F621F26
:101D5000731F841F48F4879577956795B795F79516
:101D60009E3F08F0B0CF9395880F08F09927EE0FAB
:101D70009795879508950E94CF0E0C94B00F0E94FE
:101D8000A90F58F00E94A20F40F029F45F3F29F0FC
:101D90000C94990F51110C94E40F0C949F0F0E9416
:101DA000C10F68F39923B1F3552391F3951B550B9C
:101DB000BB27AA2762177307840738F09F5F5F4F1E
:101DC000220F331F441FAA1FA9F335D00E2E3AF05D
:101DD000E0E832D091505040E695001CCAF72BD075
:101DE000FE2F29D0660F771F881FBB1F26173707C6
:101DF0004807AB07B0E809F0BB0B802DBF01FF27F8
:101E000093585F4F3AF09E3F510578F00C94990F2C
:101E10000C94E40F5F3FE4F3983ED4F386957795F6
:101E20006795B795F7959F5FC9F7880F911D9695B0
:101E3000879597F90895E1E0660F771F881FBB1F0C
:101E4000621773078407BA0720F0621B730B840BB9
:101E5000BA0BEE1F88F7E09508950E94C90F88F02D
:101E60009F5798F0B92F9927B751B0F0E1F0660F5E
:101E7000771F881F991F1AF0BA95C9F714C0B1309F
:101E800091F00E94E30FB1E008950C94E30F672FE7
:101E9000782F8827B85F39F0B93FCCF386957795CE
:101EA0006795B395D9F73EF49095809570956195B7
:101EB0007F4F8F4F9F4F0895E89409C097FB3EF4E2
:101EC00090958095709561957F4F8F4F9F4F992387
:101ED000A9F0F92F96E9BB279395F6958795779505
:101EE0006795B795F111F8CFFAF4BB0F11F460FFC5
:101EF0001BC06F5F7F4F8F4F9F4F16C0882311F01D
:101F000096E911C0772321F09EE8872F762F05C030
:101F1000662371F096E8862F70E060E02AF09A95CB
:101F2000660F771F881FDAF7880F9695879597F9C0
:101F3000089597F99F6780E870E060E008959FEF4B
:101F400080EC089500240A94161617061806090650
:101F5000089500240A94121613061406050608951F
:101F6000092E0394000C11F4882352F0BB0F40F4A7
:101F7000BF2B11F460FF04C06F5F7F4F8F4F9F4FE7
:101F8000089557FD9058440F551F59F05F3F71F069
:101F90004795880F97FB991F61F09F3F79F08795D0
:101FA0000895121613061406551FF2CF4695F1DF59
:101FB00008C0161617061806991FF1CF86957105E9
:101FC000610508940895E894BB2766277727CB011D
:101FD00097F908950E94FD0F0C94B00F0E94A20F74
:101FE00038F00E94A90F20F0952311F00C94990F5E
:101FF0000C949F0F11240C94E40F0E94C10F70F3F6
:10200000959FC1F3950F50E0551F629FF001729F9D
:10201000BB27F00DB11D639FAA27F00DB11DAA1FAC
:10202000649F6627B00DA11D661F829F2227B00DF9
:10203000A11D621F739FB00DA11D621F839FA00D84
:10204000611D221F749F3327A00D611D231F849FD4
:10205000600D211D822F762F6A2F11249F5750402B
:102060009AF0F1F088234AF0EE0FFF1FBB1F661FA6
:10207000771F881F91505040A9F79E3F510580F06F
:102080000C94990F0C94E40F5F3FE4F3983ED4F363
:10209000869577956795B795F795E7959F5FC1F713
:1020A000FE2B880F911D9695879597F90895FA0153
:1020B000EE0FFF1F309621053105A1F16115710565
:1020C00061F48038BFE39B0749F16894903881053B
:1020D00061F08038BFEF9B0741F099234AF5FF3F3D
:1020E000E1053105210519F1E8940894E795D90136
:1020F000AA2329F4AB2FBE2FF85FD0F310C0FF5FE7
:1021000070F4A695E0F7F73950F019F0FF3A38F47B
:102110009F779F930DD00F9007FC9058089546F03D
:102120000C949F0F60E070E080E89FE308954FE714
:102130009F775F934F933F932F930E9452112F915C
:102140003F914F915F910E94EA0F0C94AF1029F4D8
:1021500016F00C94990F0C94E30F0C949F0F0E94AF
:10216000C90FA8F39638A0F707F80F92E8942BE36D
:102170003AEA48EB5FE70E9400100F920F920F922D
:102180004DB75EB70F920E949A11E8E6F0E00E9408
:10219000E1104F915F91EF91FF91E595EE1FFF1FC9
:1021A00049F0FE57E0684427EE0F441FFA95E1F727
:1021B0004195550B0E9414110F9007FE0C940811C5
:1021C0000895DF93CF931F930F93FF92EF92DF92C7
:1021D0007B018C01689406C0DA2EEF010E94FD0F8E
:1021E000FE01E894A5912591359145915591A6F36D
:1021F000EF010E94660EFE019701A801DA9469F7CB
:10220000DF90EF90FF900F911F91CF91DF91089594
:102210009B01AC0160E070E080E89FE30C94BB0E92
:102220000C94990F0C94CE110E94C90FD8F39923E6
:10223000C9F3940F511DA3F39150504094F059F0FD
:10224000882332F0660F771F881F91505040C1F7E6
:102250009E3F51052CF7880F911D9695879597F90C
:1022600008955F3FACF0983E9CF0BB27869577952C
:102270006795B79508F4B1609395C1F7BB0F58F710
:1022800011F460FFE8CF6F5F7F4F8F4F9F4FE3CF19
:102290000C94E40F16F00C94CE110C949F0F6894DC
:1022A0000C94990F0E94C90FA8F39923C1F3AEF3C0
:1022B000DF93CF931F930F93FF92C92FDD278823BE
:1022C0002AF02197660F771F881FDAF720E030E0A9
:1022D00040E85FEB9FE3883920F0803E38F021969C
:1022E0008F770E944F0EE0E9F0E004C00E944F0E8D
:1022F000EDEBF0E00E94E1108B01BE01EC01FB2E42
:102300006F5771097595771F880B990B0E945E0FA7
:1023100028E132E741E35FE30E94FD0FAF2D980112
:10232000AE01FF900F911F91CF91DF910E94660E39
:102330000C94B00FFA01DC01AA0FBB1F9B01AC018A
:10234000BF5728F4222733274427507820C0B7519D
:1023500090F4AB2F0024469537952795011CA39543
:10236000D2F3002071F0220F331F441FB395DAF32C
:102370000ED00C944E0E61307105A0E88A07B94664
:1023800030F49B01AC016627772788279078309638
:1023900021F0208331834283538308959F3F31F09E
:1023A000915020F4879577956795B795880F911D83
:1023B0009695879597F9089581E090E0F8940C94AC
:0623C000E111F894FFCFCB
:1023C60000000000F2016E01BB019901AD01390266
:1023D600000000004A031A0320010603F702F60272
:1023E600496E69636A616C697A61636A61204D53FB
:1023F600353631312053656E736F72000D0A004F0A
:0E24060076657273616D706C696E673A2000C6
:107800000C94343C0C94513C0C94513C0C94513CE1
:107810000C94513C0C94513C0C94513C0C94513CB4
:107820000C94513C0C94513C0C94513C0C94513CA4
:107830000C94513C0C94513C0C94513C0C94513C94
:107840000C94513C0C94513C0C94513C0C94513C84
:107850000C94513C0C94513C0C94513C0C94513C74
:107860000C94513C0C94513C11241FBECFEFD8E036
:10787000DEBFCDBF11E0A0E0B1E0ECE9FFE702C060
:1078800005900D92A230B107D9F712E0A2E0B1E065
:1078900001C01D92AD30B107E1F70E942D3D0C945F
:1078A000CC3F0C94003C982F959595959595959582
:1078B000905D8F708A307CF0282F295A8091C0000B
:1078C00085FFFCCF9093C6008091C00085FFFCCF60
:1078D0002093C6000895282F205DF0CF982F809127
:1078E000C00085FFFCCF9093C6000895EF92FF92F1
:1078F0000F931F93EE24FF2487018091C00087FD22
:1079000017C00894E11CF11C011D111D81E4E8164B
:1079100082E4F8068FE0080780E0180770F3E09132
:107920000401F091050109958091C00087FFE9CF1E
:107930008091C6001F910F91FF90EF9008950E94D3
:10794000763C982F8091C00085FFFCCF9093C600B5
:1079500091362CF490330CF09053892F089597555D
:10796000892F08951F930E949F3C182F0E949F3CCF
:107970001295107F810F1F9108951F93182F882350
:1079800021F00E94763C1150E1F71F9108951F935A
:10799000182F0E94763C803249F0809103018F5F5E
:1079A000809303018530C1F01F9108958091C0003C
:1079B00085FFFCCF84E18093C6008091C00085FFE5
:1079C000FCCF1093C6008091C00085FFFCCF80E102
:1079D0008093C6001F910895E0910401F091050184
:1079E00009951F9108950E94763C803241F0809164
:1079F00003018F5F80930301853081F008958091AA
:107A0000C00085FFFCCF84E18093C6008091C00058
:107A100085FFFCCF80E18093C6000895E0910401CA
:107A2000F09105010995089540E951E08823A1F0FE
:107A30002D9A28EE33E0FA013197F1F721503040CA
:107A4000D1F72D9828EE33E0FA013197F1F7215064
:107A50003040D1F7815061F708953F924F925F9285
:107A60006F927F928F929F92AF92BF92CF92DF924E
:107A7000EF92FF920F931F93CF93DF93000080E16B
:107A80008093C4001092C50088E18093C10086E015
:107A90008093C2005098589A259A81E00E94143D24
:107AA00024E1F22E9EE1E92E85E9D82E0FE0C02ECA
:107AB00010E1B12EAA24A394B1E49B2EA6E58A2E50
:107AC000F2E57F2EE0E26E2E79E4572E63E5462E36
:107AD00050E5352E0E94763C8033B1F18133B9F107
:107AE000803409F46FC0813409F476C0823409F41B
:107AF00085C0853409F488C0803531F1823521F1A3
:107B0000813511F1853509F485C0863509F48DC0BC
:107B1000843609F496C0843709F403C1853709F423
:107B200072C1863709F466C0809103018F5F80932C
:107B30000301853079F6E0910401F0910501099582
:107B40000E94763C803351F60E94F33CC3CF0E94E2
:107B5000763C803249F78091C00085FFFCCFF092DF
:107B6000C6008091C00085FFFCCF9092C600809136
:107B7000C00085FFFCCF8092C6008091C00085FFC9
:107B8000FCCF7092C6008091C00085FFFCCF609250
:107B9000C6008091C00085FFFCCF5092C600809146
:107BA000C00085FFFCCF4092C6008091C00085FFD9
:107BB000FCCF3092C6008091C00085FFFCCFB09210
:107BC000C60088CF0E94763C863808F4BDCF0E945C
:107BD000763C0E94F33C7ECF0E94763C803809F4CC
:107BE0009CC0813809F40BC1823809F43CC1883942
:107BF00009F48FC080E00E94C73C6CCF84E10E94F2
:107C0000BD3C0E94F33C66CF85E00E94BD3C0E94D3
:107C1000F33C60CF0E94763C809306010E94763C44
:107C2000809307010E94F33C55CF0E94763C80333D
:107C300009F41DC183E00E94BD3C80E00E94C73C66
:107C400049CF0E94763C809309020E94763C809343
:107C5000080280910C028E7F80930C020E94763C79
:107C6000853409F415C18091080290910902892B8D
:107C700089F000E010E00E94763CF801E85FFE4FDA
:107C800080830F5F1F4F80910802909109020817AF
:107C9000190788F30E94763C803209F045CF809125
:107CA0000C0280FF01C16091060170910701660F0F
:107CB000771F7093070160930601A0910802B091AD
:107CC00009021097C9F0E8E0F1E09B01AD014E0F09
:107CD0005F1FF999FECF32BD21BD819180BDFA9A17
:107CE000F99A2F5F3F4FE417F50799F76A0F7B1F4B
:107CF00070930701609306018091C00085FFFCCF5F
:107D0000F092C6008091C00085FFFCCFB092C60003
:107D1000E1CE83E00E94C73CDDCE82E00E94C73CFA
:107D2000D9CE0E94763C809309020E94763C8093D3
:107D300008028091060190910701880F991F909386
:107D40000701809306010E94763C853409F4A6C0A1
:107D500080910C028E7F80930C020E94763C8032D0
:107D600009F0B8CE8091C00085FFFCCFF092C6002C
:107D7000609108027091090261157105B9F140E046
:107D800050E080910C02A82FA170B82FB27011C0E2
:107D9000BB2309F45CC0E0910601F0910701319624
:107DA000F0930701E09306014F5F5F4F46175707B7
:107DB000E8F4AA2369F3F999FECF209106013091E6
:107DC000070132BD21BDF89A90B58091C00085FFB2
:107DD000FCCF9093C6002F5F3F4F30930701209355
:107DE00006014F5F5F4F4617570718F38091C00099
:107DF00085FDE5CE8091C00085FFF8CFE0CE81E023
:107E00000E94C73C67CE0E94763C803209F08CCE3F
:107E10008091C00085FFFCCFF092C6008091C00029
:107E200085FFFCCFE092C6008091C00085FFFCCFAB
:107E3000D092C6008091C00085FFFCCFC092C600E2
:107E40008091C00085FFFCCFB092C60043CEE09188
:107E50000601F091070194918091C00085FFFCCF4D
:107E60009093C6009CCF80E10E94C73C33CE0E9415
:107E7000763C0E94763C182F0E94763C112309F430
:107E800083C0113009F484C08FE00E94C73C22CE29
:107E900080910C02816080930C02E5CE80910C02EF
:107EA000816080930C0259CF809107018823880F4D
:107EB000880B8A2180930B02809106019091070123
:107EC000880F991F90930701809306018091080203
:107ED00080FF09C080910802909109020196909359
:107EE000090280930802F894F999FECF1127E091D6
:107EF0000601F0910701C8E0D1E08091080290915D
:107F00000902103091F40091570001700130D9F34B
:107F100003E000935700E89500915700017001308D
:107F2000D9F301E100935700E89509901990009169
:107F3000570001700130D9F301E000935700E89534
:107F40001395103498F011270091570001700130FB
:107F5000D9F305E000935700E895009157000170B0
:107F60000130D9F301E100935700E895329602976A
:107F700009F0C7CF103011F00296E5CF112480919F
:107F8000C00085FFB9CEBCCE8EE10E94C73CA2CD19
:0C7F900085E90E94C73C9ECDF894FFCF0D
:027F9C00800063
:040000030000780081
:00000001FF