:100000000C9435000C945D000C945D000C945D0024
:100010000C945D000C945D000C945D000C945D00EC
:100020000C945D000C945D000C945D000C945D00DC
:100030000C945D000C945D000C945D000C945D00CC
:100040000C9428020C945D000C94F6010C94D001E1
:100050000C945D000C945D000C945D000C945D00AC
:100060000C945D000C945D00460511241FBECFEF7B
:10007000D8E0DEBFCDBF11E0A0E0B1E0E6E5FFE0F3
:1000800002C005900D92A631B107D9F722E0A6E192
:10009000B1E001C01D92A030B207E1F710E0C5E366
:1000A000D0E004C02197FE010E949505C433D1071A
:1000B000C9F70E9472020C94A9070C940000CF9219
:1000C000DF92EF92FF920F931F93CF93DF936C0118
:1000D0007A018B01C0E0D0E0CE15DF0589F0D801B0
:1000E0006D918D01D601ED91FC910190F081E02D93
:1000F000C6010995892B11F47E0102C02196ECCF2F
:10010000C701DF91CF911F910F91FF90EF90DF908A
:10011000CF900895FC01918D828D981761F0828DAA
:10012000DF01A80FB11D5D968C91928D9F5F9F732B
:10013000928F90E008958FEF9FEF0895FC01918DCD
:10014000828D981731F0828DE80FF11D858D90E03A
:1001500008958FEF9FEF0895FC01918D228D892FD7
:1001600090E0805C9F4F821B91098F7399270895BF
:1001700083E691E00E94AC0021E0892B09F420E0A5
:10018000822F0895FC01848DDF01A80FB11DA35AB1
:10019000BF4F2C91848D90E001968F739927848FA7
:1001A000A689B7892C93A089B1898C9180648C939E
:1001B000938D848D981306C00288F389E02D808189
:1001C0008F7D80830895EF92FF920F931F93CF93BB
:1001D000DF93EC0181E0888F9B8D8C8D981305C097
:1001E000E889F989808185FD24C0F62E0B8D10E009
:1001F0000F5F1F4F0F731127E02E8C8DE8120CC07C
:100200000FB607FCFACFE889F989808185FFF5CF21
:10021000CE010E94C200F1CF8B8DFE01E80FF11DCF
:10022000E35AFF4FF0820B8FEA89FB89808180625D
:1002300007C0EE89FF896083E889F989808180643D
:10024000808381E090E0DF91CF911F910F91FF902B
:10025000EF900895CF93DF93EC01888D8823C9F048
:10026000EA89FB89808185FD05C0A889B9898C91BF
:1002700086FD0FC00FB607FCF5CF808185FFF2CF5A
:10028000A889B9898C9185FFEDCFCE010E94C2006B
:10029000E7CFDF91CF91089580E090E0892B29F09E
:1002A0000E94B80081110C94000008953FB7F894A3
:1002B00080911B0190911C01A0911D01B0911E0124
:1002C00026B5A89B05C02F3F19F00196A11DB11DB1
:1002D0003FBFBA2FA92F982F8827820F911DA11DEC
:1002E000B11DBC01CD0142E0660F771F881F991F29
:1002F0004A95D1F70895009769F0FC01019000201C
:10030000E9F73197AF01481B590BBC0183E691E037
:100310000C945F0080E090E008958F929F92AF92DE
:10032000BF920F931F93CF93DF93CDB7DEB7A19703
:100330000FB6F894DEBF0FBECDBF19A2423008F44D
:100340004AE08E010F5D1F4F842E912CA12CB12C01
:10035000A50194010E947305E62FB901CA0101505D
:100360001109EA3014F4E05D01C0E95CD801EC93B6
:10037000232B242B252B61F7C8010E947B01A1961A
:100380000FB6F894DEBF0FBECDBFDF91CF911F91A6
:100390000F91BF90AF909F908F9008950E94A407F7
:1003A0001F920F920FB60F9211242F933F934F93EA
:1003B0005F936F937F938F939F93AF93BF93EF93CD
:1003C000FF9383E691E00E94C200FF91EF91BF91FD
:1003D000AF919F918F917F916F915F914F913F91DD
:1003E0002F910F900FBE0F901F9018951F920F9294
:1003F0000FB60F9211242F938F939F93EF93FF9338
:10040000E0917301F09174018081E0917901F091A4
:100410007A0182FD12C0908180917C018F5F8F7381
:1004200020917D01821751F0E0917C01F0E0ED59BF
:10043000FE4F958F80937C0101C08081FF91EF91E9
:100440009F918F912F910F900FBE0F901F90189535
:100450001F920F920FB60F9211242F933F938F93F9
:100460009F93AF93BF938091170190911801A09132
:100470001901B0911A013091160123E0230F2D3795
:1004800020F40196A11DB11D05C026E8230F029698
:10049000A11DB11D2093160180931701909318019F
:1004A000A0931901B0931A0180911B0190911C0136
:1004B000A0911D01B0911E010196A11DB11D809357
:1004C0001B0190931C01A0931D01B0931E01BF91CD
:1004D000AF919F918F913F912F910F900FBE0F90F1
:1004E0001F901895CF93DF93CDB7DEB76C970FB6FB
:1004F000F894DEBF0FBECDBF789484B5826084BD12
:1005000084B5816084BD85B5826085BD85B5816017
:1005100085BD80916E00816080936E001092810095
:100520008091810082608093810080918100816050
:100530008093810080918000816080938000809111
:10054000B10084608093B1008091B000816080939D
:10055000B00080917A00846080937A0080917A0064
:10056000826080937A0080917A00816080937A0023
:1005700080917A00806880937A001092C100E091A7
:100580007301F091740182E08083E0916F01F0913A
:1005900070011082E0917101F091720180E180831D
:1005A00010927B01E0917701F091780186E08083E1
:1005B000E0917501F0917601808180618083E09106
:1005C0007501F0917601808188608083E0917501EA
:1005D000F0917601808180688083E0917501F091CF
:1005E000760180818F7D80838FE692E1A3E8BAE374
:1005F0008093210190932201A0932301B0932401C1
:1006000086EA9BE9A4E4BBE380932501909326014D
:10061000A0932701B09328018FE892ECA5EFBCE3EB
:100620008093290190932A01A0932B01B0932C0170
:1006300010922D0110922E0110922F011092300174
:100640001092310110923201109233011092340154
:100650001092390110923A0110923B0110923C0124
:1006600010923D0110923E0110923F011092400104
:1006700010924101109242011092430110924401E4
:1006800010924501109246011092470110924801C4
:100690000E9456010E94A90660935D0170935E015D
:1006A00080935F019093600110E410937C0080912F
:1006B0007A00806480937A0080917A0086FDFCCF76
:1006C0009091780080917900292E312C382A30922F
:1006D0006201209261010E9456010E94A9062091A8
:1006E0005D0130915E0140915F01509160010E9477
:1006F0009B0520E034E244E759E40E9408066B01C0
:100700007C016093590170935A0180935B0190932F
:100710005C018091310190913201A0913301B0913F
:10072000340189879A87AB87BC879C01AD015058FB
:1007300020933501309336014093370150933801AF
:10074000C701B6010E94370720912D0130912E017B
:1007500040912F01509130010E949C056D877E874A
:100760008F87988B409045015090460160904701DB
:100770007090480180913D0190913E01A0913F0110
:10078000B091400189839A83AB83BC839C01AD0106
:10079000C301B2010E949C059B01AC01C701B601D7
:1007A0000E9437074B015C01209121013091220109
:1007B0004091230150912401C701B6010E943707DF
:1007C0009B01AC01C501B4010E949C052091390137
:1007D00030913A0140913B0150913C010E949C05AF
:1007E0006D837E838F839887A3019201C701B60131
:1007F0000E9437074B015C019B01AC0169817A8142
:100800008B819C810E949B0569837A838B839C8367
:10081000A5019401609141017091420180914301D1
:10082000909144010E949B05698B7A8B8B8B9C8BEA
:1008300020912501309126014091270150912801F6
:10084000C701B6010E9437079B01AC01C301B20189
:100850000E949C05698F7A8F8B8F9C8F2091290134
:1008600030912A0140912B0150912C016D817E81A4
:100870008F8198850E949C056B017C0160935101DA
:100880007093520180935301909354019B01AC01EA
:100890006D817E818F8198850E9408064B015C01E5
:1008A0006093490170934A0180934B0190934C01EE
:1008B000A701960169897A898B899C890E9408061B
:1008C0006B017C0160934D0170934E0180934F0149
:1008D00090935001C101A0E0B0E08D8B9E8BAF8B57
:1008E000B88FBC01CD010E94A9062D853E854F859C
:1008F00058890E949B052B013C0160935501709320
:10090000560180935701909358019B01AC01C5019A
:10091000B4010E9437079B01AC016D857E858F85F0
:1009200098890E949C0560932D0170932E018093FD
:100930002F0190933001A3019201C701B6010E94DB
:1009400037079B01AC0169857A858B859C850E9460
:100950009C05609331017093320180933301909331
:1009600034012D813E814F815885C501B4010E941B
:1009700037079B01AC016D817E818F8198850E9434
:100980009B052B013C016093390170933A018093E0
:100990003B0190933C0129813A814B815C81C501E7
:1009A000B4010E9437079B01AC0169817A818B8178
:1009B0009C810E949B054B015C0160933D017093FB
:1009C0003E0180933F0190934001A3019201C70132
:1009D000B6010E9437079B01AC0169897A898B892E
:1009E0009C890E949B056093410170934201809312
:1009F000430190934401A5019401C701B6010E94EF
:100A000037079B01AC01698D7A8D8B8D9C8D0E947F
:100A10009B05609345017093460180934701909335
:100A200048010E9456010E94A90660935D017093DF
:100A30005E0180935F019093600160912D01709140
:100A40002E0180912F01909130010E947A067093BF
:100A5000200160931F014AE06D897E898F89988DFE
:100A60000E948D0180E191E00E947B0160911F0155
:100A70007091200180E090E04AE00E948D0182E1C7
:100A800091E00E947B010E944C010FCEE3E6F1E071
:100A90001382128288EE93E0A0E0B0E08483958315
:100AA000A683B78384E091E09183808385EC90E016
:100AB0009587848784EC90E09787868780EC90E028
:100AC000918B808B81EC90E0938B828B82EC90E019
:100AD000958B848B86EC90E0978B868B118E128E93
:100AE000138E148E0895A1E21A2EAA1BBB1BFD01C2
:100AF0000DC0AA1FBB1FEE1FFF1FA217B307E407FD
:100B0000F50720F0A21BB30BE40BF50B661F771F54
:100B1000881F991F1A9469F7609570958095909534
:100B20009B01AC01BD01CF010895EE0FFF1F0590A1
:100B3000F491E02D09945058BB27AA270E94B305D1
:100B40000C94FD060E94EF0638F00E94F60620F095
:100B500039F49F3F19F426F40C94EC060EF4E0955A
:100B6000E7FB0C94E606E92F0E940E0758F3BA172C
:100B7000620773078407950720F079F4A6F50C94B3
:100B800030070EF4E0950B2EBA2FA02D0B01B90102
:100B900090010C01CA01A0011124FF27591B99F0F3
:100BA000593F50F4503E68F11A16F040A22F232FFF
:100BB000342F4427585FF3CF469537952795A7954F
:100BC000F0405395C9F77EF41F16BA0B620B730BF6
:100BD000840BBAF09150A1F0FF0FBB1F661F771F67
:100BE000881FC2F70EC0BA0F621F731F841F48F41C
:100BF000879577956795B795F7959E3F08F0B0CFA5
:100C00009395880F08F09927EE0F9795879508958B
:100C10000E941C060C94FD060E94F60658F00E94E5
:100C2000EF0640F029F45F3F29F00C94E6065111DD
:100C30000C9431070C94EC060E940E0768F399237C
:100C4000B1F3552391F3951B550BBB27AA276217C8
:100C50007307840738F09F5F5F4F220F331F441FD5
:100C6000AA1FA9F335D00E2E3AF0E0E832D0915009
:100C70005040E695001CCAF72BD0FE2F29D0660FF6
:100C8000771F881FBB1F261737074807AB07B0E839
:100C900009F0BB0B802DBF01FF2793585F4F3AF03F
:100CA0009E3F510578F00C94E6060C9431075F3FA7
:100CB000E4F3983ED4F3869577956795B795F795C5
:100CC0009F5FC9F7880F911D9695879597F90895AD
:100CD000E1E0660F771F881FBB1F62177307840749
:100CE000BA0720F0621B730B840BBA0BEE1F88F758
:100CF000E09508950E94160788F09F5798F0B92F45
:100D00009927B751B0F0E1F0660F771F881F991F40
:100D10001AF0BA95C9F714C0B13091F00E943007AB
:100D2000B1E008950C943007672F782F8827B85FBB
:100D300039F0B93FCCF3869577956795B395D9F798
:100D40003EF490958095709561957F4F8F4F9F4FA2
:100D50000895E89409C097FB3EF4909580957095AE
:100D600061957F4F8F4F9F4F9923A9F0F92F96E9F7
:100D7000BB279395F695879577956795B795F1116C
:100D8000F8CFFAF4BB0F11F460FF1BC06F5F7F4F09
:100D90008F4F9F4F16C0882311F096E911C077231B
:100DA00021F09EE8872F762F05C0662371F096E824
:100DB000862F70E060E02AF09A95660F771F881FF3
:100DC000DAF7880F9695879597F9089597F99F67B1
:100DD00080E870E060E008959FEF80EC08950024C3
:100DE0000A941616170618060906089500240A9490
:100DF00012161306140605060895092E0394000C16
:100E000011F4882352F0BB0F40F4BF2B11F460FFA4
:100E100004C06F5F7F4F8F4F9F4F089557FD9058CD
:100E2000440F551F59F05F3F71F04795880F97FBAE
:100E3000991F61F09F3F79F0879508951216130668
:100E40001406551FF2CF4695F1DF08C01616170697
:100E50001806991FF1CF86957105610508940895CC
:100E6000E894BB2766277727CB0197F908950E945E
:100E70004A070C94FD060E94EF0638F00E94F60621
:100E800020F0952311F00C94E6060C94EC06112446
:100E90000C9431070E940E0770F3959FC1F3950FD4
:100EA00050E0551F629FF001729FBB27F00DB11DEE
:100EB000639FAA27F00DB11DAA1F649F6627B00D7E
:100EC000A11D661F829F2227B00DA11D621F739F67
:100ED000B00DA11D621F839FA00D611D221F749F75
:100EE0003327A00D611D231F849F600D211D822FBC
:100EF000762F6A2F11249F5750409AF0F1F08823E3
:100F00004AF0EE0FFF1FBB1F661F771F881F91500F
:100F10005040A9F79E3F510580F00C94E6060C94D2
:100F200031075F3FE4F3983ED4F386957795679554
:100F3000B795F795E7959F5FC1F7FE2B880F911D39
:100F40009695879597F9089581E090E0F8940C9430
:060F5000A907F894FFCF91
:100F560000000000E3005F00AC008A009E002A014A
:060F660009000D0A000065
:00000001FF
